{
  "_format": "hh-sol-artifact-1",
  "contractName": "DAOVotingManager",
  "sourceName": "contracts/DAOVotingManager.sol",
  "abi": [
    {
      "inputs": [
        {
          "internalType": "uint256",
          "name": "_minimumOwnersToExecute",
          "type": "uint256"
        },
        {
          "internalType": "string",
          "name": "_daoName",
          "type": "string"
        },
        {
          "internalType": "address[]",
          "name": "_owners",
          "type": "address[]"
        }
      ],
      "stateMutability": "nonpayable",
      "type": "constructor"
    },
    {
      "inputs": [],
      "name": "account",
      "outputs": [
        {
          "internalType": "contract LSP0ERC725Account",
          "name": "",
          "type": "address"
        }
      ],
      "stateMutability": "view",
      "type": "function"
    },
    {
      "inputs": [
        {
          "internalType": "address",
          "name": "_newOwner",
          "type": "address"
        },
        {
          "internalType": "uint256",
          "name": "_newMinimumOwnersToExecute",
          "type": "uint256"
        }
      ],
      "name": "addOwnerPropose",
      "outputs": [],
      "stateMutability": "nonpayable",
      "type": "function"
    },
    {
      "inputs": [],
      "name": "daoName",
      "outputs": [
        {
          "internalType": "string",
          "name": "",
          "type": "string"
        }
      ],
      "stateMutability": "view",
      "type": "function"
    },
    {
      "inputs": [
        {
          "internalType": "uint256",
          "name": "_transactionId",
          "type": "uint256"
        },
        {
          "internalType": "enum DAOVotingManager.Vote",
          "name": "_vote",
          "type": "uint8"
        }
      ],
      "name": "execute",
      "outputs": [],
      "stateMutability": "nonpayable",
      "type": "function"
    },
    {
      "inputs": [
        {
          "internalType": "bytes",
          "name": "_payload",
          "type": "bytes"
        },
        {
          "internalType": "address",
          "name": "_address",
          "type": "address"
        },
        {
          "internalType": "uint256",
          "name": "_value",
          "type": "uint256"
        }
      ],
      "name": "executePropose",
      "outputs": [],
      "stateMutability": "nonpayable",
      "type": "function"
    },
    {
      "inputs": [],
      "name": "getOwners",
      "outputs": [
        {
          "internalType": "address[]",
          "name": "",
          "type": "address[]"
        }
      ],
      "stateMutability": "view",
      "type": "function"
    },
    {
      "inputs": [],
      "name": "getTransactions",
      "outputs": [
        {
          "components": [
            {
              "internalType": "uint256",
              "name": "id",
              "type": "uint256"
            },
            {
              "components": [
                {
                  "internalType": "enum DAOVotingManager.OperationType",
                  "name": "operation",
                  "type": "uint8"
                },
                {
                  "internalType": "bytes",
                  "name": "payload",
                  "type": "bytes"
                },
                {
                  "internalType": "address",
                  "name": "to",
                  "type": "address"
                },
                {
                  "internalType": "uint256",
                  "name": "value",
                  "type": "uint256"
                },
                {
                  "internalType": "uint256",
                  "name": "newMinimumOwnersToExecute",
                  "type": "uint256"
                },
                {
                  "internalType": "address",
                  "name": "owner",
                  "type": "address"
                }
              ],
              "internalType": "struct DAOVotingManager.Data",
              "name": "data",
              "type": "tuple"
            },
            {
              "components": [
                {
                  "internalType": "enum DAOVotingManager.Vote",
                  "name": "vote",
                  "type": "uint8"
                },
                {
                  "internalType": "address",
                  "name": "owner",
                  "type": "address"
                }
              ],
              "internalType": "struct DAOVotingManager.AddressVote[]",
              "name": "addressVotes",
              "type": "tuple[]"
            },
            {
              "internalType": "enum DAOVotingManager.Status",
              "name": "status",
              "type": "uint8"
            }
          ],
          "internalType": "struct DAOVotingManager.Transaction[]",
          "name": "",
          "type": "tuple[]"
        }
      ],
      "stateMutability": "view",
      "type": "function"
    },
    {
      "inputs": [],
      "name": "minimumOwnersToExecute",
      "outputs": [
        {
          "internalType": "uint256",
          "name": "",
          "type": "uint256"
        }
      ],
      "stateMutability": "view",
      "type": "function"
    }
  ],
  "bytecode": "0x60806040523480156200001157600080fd5b50604051620069de380380620069de83398181016040528101906200003791906200059d565b80518311156200007e576040517f08c379a00000000000000000000000000000000000000000000000000000000081526004016200007590620006be565b60405180910390fd5b8260018190555081600290805190602001906200009d92919062000138565b508060039080519060200190620000b6929190620001c9565b5030604051620000c69062000258565b620000d29190620006f1565b604051809103906000f080158015620000ef573d6000803e3d6000fd5b506000806101000a81548173ffffffffffffffffffffffffffffffffffffffff021916908373ffffffffffffffffffffffffffffffffffffffff16021790555050505062000773565b82805462000146906200073d565b90600052602060002090601f0160209004810192826200016a5760008555620001b6565b82601f106200018557805160ff1916838001178555620001b6565b82800160010185558215620001b6579182015b82811115620001b557825182559160200191906001019062000198565b5b509050620001c5919062000266565b5090565b82805482825590600052602060002090810192821562000245579160200282015b82811115620002445782518260006101000a81548173ffffffffffffffffffffffffffffffffffffffff021916908373ffffffffffffffffffffffffffffffffffffffff16021790555091602001919060010190620001ea565b5b50905062000254919062000266565b5090565b613c5f8062002d7f83390190565b5b808211156200028157600081600090555060010162000267565b5090565b6000604051905090565b600080fd5b600080fd5b6000819050919050565b620002ae8162000299565b8114620002ba57600080fd5b50565b600081519050620002ce81620002a3565b92915050565b600080fd5b600080fd5b6000601f19601f8301169050919050565b7f4e487b7100000000000000000000000000000000000000000000000000000000600052604160045260246000fd5b6200032982620002de565b810181811067ffffffffffffffff821117156200034b576200034a620002ef565b5b80604052505050565b60006200036062000285565b90506200036e82826200031e565b919050565b600067ffffffffffffffff821115620003915762000390620002ef565b5b6200039c82620002de565b9050602081019050919050565b60005b83811015620003c9578082015181840152602081019050620003ac565b83811115620003d9576000848401525b50505050565b6000620003f6620003f08462000373565b62000354565b905082815260208101848484011115620004155762000414620002d9565b5b62000422848285620003a9565b509392505050565b600082601f830112620004425762000441620002d4565b5b815162000454848260208601620003df565b91505092915050565b600067ffffffffffffffff8211156200047b576200047a620002ef565b5b602082029050602081019050919050565b600080fd5b600073ffffffffffffffffffffffffffffffffffffffff82169050919050565b6000620004be8262000491565b9050919050565b620004d081620004b1565b8114620004dc57600080fd5b50565b600081519050620004f081620004c5565b92915050565b60006200050d62000507846200045d565b62000354565b905080838252602082019050602084028301858111156200053357620005326200048c565b5b835b818110156200056057806200054b8882620004df565b84526020840193505060208101905062000535565b5050509392505050565b600082601f830112620005825762000581620002d4565b5b815162000594848260208601620004f6565b91505092915050565b600080600060608486031215620005b957620005b86200028f565b5b6000620005c986828701620002bd565b935050602084015167ffffffffffffffff811115620005ed57620005ec62000294565b5b620005fb868287016200042a565b925050604084015167ffffffffffffffff8111156200061f576200061e62000294565b5b6200062d868287016200056a565b9150509250925092565b600082825260208201905092915050565b7f4d696e696d756d206f776e65727320746f2065786563757465203c206f776e6560008201527f727320636f756e74000000000000000000000000000000000000000000000000602082015250565b6000620006a660288362000637565b9150620006b38262000648565b604082019050919050565b60006020820190508181036000830152620006d98162000697565b9050919050565b620006eb81620004b1565b82525050565b6000602082019050620007086000830184620006e0565b92915050565b7f4e487b7100000000000000000000000000000000000000000000000000000000600052602260045260246000fd5b600060028204905060018216806200075657607f821691505b602082108114156200076d576200076c6200070e565b5b50919050565b6125fc80620007836000396000f3fe608060405234801561001057600080fd5b50600436106100885760003560e01c80635dab24201161005b5780635dab242014610101578063836674751461011f57806383920e901461013b578063a0e67e2b1461015957610088565b806314410dc51461008d57806316559120146100a9578063427fd0ff146100c757806348976936146100e3575b600080fd5b6100a760048036038101906100a291906118d0565b610177565b005b6100b1610542565b6040516100be9190611953565b60405180910390f35b6100e160048036038101906100dc9190611993565b610548565b005b6100eb610ae4565b6040516100f89190611a6c565b60405180910390f35b610109610b72565b6040516101169190611aed565b60405180910390f35b61013960048036038101906101349190611b08565b610b96565b005b610143611024565b6040516101509190611f55565b60405180910390f35b61016161144d565b60405161016e9190612026565b60405180910390f35b6000805b600380549050811015610216573373ffffffffffffffffffffffffffffffffffffffff16600382815481106101b3576101b2612048565b5b9060005260206000200160009054906101000a900473ffffffffffffffffffffffffffffffffffffffff1673ffffffffffffffffffffffffffffffffffffffff1614156102035760019150610216565b808061020e906120a6565b91505061017b565b5080610257576040517f08c379a000000000000000000000000000000000000000000000000000000000815260040161024e9061213b565b60405180910390fd5b600061026360046114db565b905060006040518060c0016040528060028081111561028557610284611b83565b5b815260200188888080601f016020809104026020016040519081016040528093929190818152602001838380828437600081840152601f19601f8201169050808301925050505050505081526020018673ffffffffffffffffffffffffffffffffffffffff16815260200185815260200160008152602001600073ffffffffffffffffffffffffffffffffffffffff16815250905061032460046114e9565b806005600084815260200190815260200160002060008201518160000160006101000a81548160ff0219169083600281111561036357610362611b83565b5b0217905550602082015181600101908051906020019061038492919061162a565b5060408201518160020160006101000a81548173ffffffffffffffffffffffffffffffffffffffff021916908373ffffffffffffffffffffffffffffffffffffffff160217905550606082015181600301556080820151816004015560a08201518160050160006101000a81548173ffffffffffffffffffffffffffffffffffffffff021916908373ffffffffffffffffffffffffffffffffffffffff16021790555090505060016007600084815260200190815260200160002060003373ffffffffffffffffffffffffffffffffffffffff1673ffffffffffffffffffffffffffffffffffffffff16815260200190815260200160002060006101000a81548160ff0219169083600281111561049e5761049d611b83565b5b0217905550600180541415610539576104fc87878080601f016020809104026020016040519081016040528093929190818152602001838380828437600081840152601f19601f8201169050808301925050505050505086866114ff565b60016006600084815260200190815260200160002060006101000a81548160ff0219169083600281111561053357610532611b83565b5b02179055505b50505050505050565b60015481565b6000805b6003805490508110156105e7573373ffffffffffffffffffffffffffffffffffffffff166003828154811061058457610583612048565b5b9060005260206000200160009054906101000a900473ffffffffffffffffffffffffffffffffffffffff1673ffffffffffffffffffffffffffffffffffffffff1614156105d457600191506105e7565b80806105df906120a6565b91505061054c565b5080610628576040517f08c379a000000000000000000000000000000000000000000000000000000000815260040161061f9061213b565b60405180910390fd5b826000600281111561063d5761063c611b83565b5b6006600083815260200190815260200160002060009054906101000a900460ff1660028111156106705761066f611b83565b5b146106b0576040517f08c379a00000000000000000000000000000000000000000000000000000000081526004016106a7906121a7565b60405180910390fd5b826007600086815260200190815260200160002060003373ffffffffffffffffffffffffffffffffffffffff1673ffffffffffffffffffffffffffffffffffffffff16815260200190815260200160002060006101000a81548160ff0219169083600281111561072357610722611b83565b5b02179055506000600281111561073c5761073b611b83565b5b83600281111561074f5761074e611b83565b5b14610ade5760006001549050600080600380549050905060005b81811015610ad95786600281111561078457610783611b83565b5b600760008a81526020019081526020016000206000600384815481106107ad576107ac612048565b5b9060005260206000200160009054906101000a900473ffffffffffffffffffffffffffffffffffffffff1673ffffffffffffffffffffffffffffffffffffffff1673ffffffffffffffffffffffffffffffffffffffff16815260200190815260200160002060009054906101000a900460ff16600281111561083257610831611b83565b5b1415610ac65760018361084591906121c7565b9250838310610ac5576000600560008a81526020019081526020016000206040518060c00160405290816000820160009054906101000a900460ff16600281111561089357610892611b83565b5b60028111156108a5576108a4611b83565b5b81526020016001820180546108b99061224c565b80601f01602080910402602001604051908101604052809291908181526020018280546108e59061224c565b80156109325780601f1061090757610100808354040283529160200191610932565b820191906000526020600020905b81548152906001019060200180831161091557829003601f168201915b505050505081526020016002820160009054906101000a900473ffffffffffffffffffffffffffffffffffffffff1673ffffffffffffffffffffffffffffffffffffffff1673ffffffffffffffffffffffffffffffffffffffff16815260200160038201548152602001600482015481526020016005820160009054906101000a900473ffffffffffffffffffffffffffffffffffffffff1673ffffffffffffffffffffffffffffffffffffffff1673ffffffffffffffffffffffffffffffffffffffff1681525050905060016002811115610a1157610a10611b83565b5b886002811115610a2457610a23611b83565b5b1415610a8257610a418160200151826040015183606001516114ff565b6001600660008b815260200190815260200160002060006101000a81548160ff02191690836002811115610a7857610a77611b83565b5b0217905550610abf565b6002600660008b815260200190815260200160002060006101000a81548160ff02191690836002811115610ab957610ab8611b83565b5b02179055505b50610ad9565b5b8080610ad1906120a6565b915050610769565b505050505b50505050565b60028054610af19061224c565b80601f0160208091040260200160405190810160405280929190818152602001828054610b1d9061224c565b8015610b6a5780601f10610b3f57610100808354040283529160200191610b6a565b820191906000526020600020905b815481529060010190602001808311610b4d57829003601f168201915b505050505081565b60008054906101000a900473ffffffffffffffffffffffffffffffffffffffff1681565b6000805b600380549050811015610c35573373ffffffffffffffffffffffffffffffffffffffff1660038281548110610bd257610bd1612048565b5b9060005260206000200160009054906101000a900473ffffffffffffffffffffffffffffffffffffffff1673ffffffffffffffffffffffffffffffffffffffff161415610c225760019150610c35565b8080610c2d906120a6565b915050610b9a565b5080610c76576040517f08c379a0000000000000000000000000000000000000000000000000000000008152600401610c6d9061213b565b60405180910390fd5b826000805b600380549050811015610d16578273ffffffffffffffffffffffffffffffffffffffff1660038281548110610cb357610cb2612048565b5b9060005260206000200160009054906101000a900473ffffffffffffffffffffffffffffffffffffffff1673ffffffffffffffffffffffffffffffffffffffff161415610d035760019150610d16565b8080610d0e906120a6565b915050610c7b565b508015610d58576040517f08c379a0000000000000000000000000000000000000000000000000000000008152600401610d4f906122ca565b60405180910390fd5b60006003805490509050600181610d6f91906121c7565b851115610db1576040517f08c379a0000000000000000000000000000000000000000000000000000000008152600401610da89061235c565b60405180910390fd5b6000610dbd60046114db565b905060006040518060c0016040528060006002811115610de057610ddf611b83565b5b8152602001604051806020016040528060008152508152602001600073ffffffffffffffffffffffffffffffffffffffff168152602001600081526020018881526020018973ffffffffffffffffffffffffffffffffffffffff168152509050610e4a60046114e9565b806005600084815260200190815260200160002060008201518160000160006101000a81548160ff02191690836002811115610e8957610e88611b83565b5b02179055506020820151816001019080519060200190610eaa92919061162a565b5060408201518160020160006101000a81548173ffffffffffffffffffffffffffffffffffffffff021916908373ffffffffffffffffffffffffffffffffffffffff160217905550606082015181600301556080820151816004015560a08201518160050160006101000a81548173ffffffffffffffffffffffffffffffffffffffff021916908373ffffffffffffffffffffffffffffffffffffffff16021790555090505060016007600084815260200190815260200160002060003373ffffffffffffffffffffffffffffffffffffffff1673ffffffffffffffffffffffffffffffffffffffff16815260200190815260200160002060006101000a81548160ff02191690836002811115610fc457610fc3611b83565b5b021790555060018054141561101a57610fdd88886115bc565b60016006600084815260200190815260200160002060006101000a81548160ff0219169083600281111561101457611013611b83565b5b02179055505b5050505050505050565b6060600061103260046114db565b90506000600380549050905060008267ffffffffffffffff81111561105a5761105961237c565b5b60405190808252806020026020018201604052801561109357816020015b6110806116b0565b8152602001906001900390816110785790505b50905060005b838110156114435760008367ffffffffffffffff8111156110bd576110bc61237c565b5b6040519080825280602002602001820160405280156110f657816020015b6110e36116f0565b8152602001906001900390816110db5790505b50905060005b848110156112135760006003828154811061111a57611119612048565b5b9060005260206000200160009054906101000a900473ffffffffffffffffffffffffffffffffffffffff16905060405180604001604052806007600087815260200190815260200160002060008473ffffffffffffffffffffffffffffffffffffffff1673ffffffffffffffffffffffffffffffffffffffff16815260200190815260200160002060009054906101000a900460ff1660028111156111c2576111c1611b83565b5b81526020018273ffffffffffffffffffffffffffffffffffffffff168152508383815181106111f4576111f3612048565b5b602002602001018190525050808061120b906120a6565b9150506110fc565b506040518060800160405280838152602001600560008581526020019081526020016000206040518060c00160405290816000820160009054906101000a900460ff16600281111561126857611267611b83565b5b600281111561127a57611279611b83565b5b815260200160018201805461128e9061224c565b80601f01602080910402602001604051908101604052809291908181526020018280546112ba9061224c565b80156113075780601f106112dc57610100808354040283529160200191611307565b820191906000526020600020905b8154815290600101906020018083116112ea57829003601f168201915b505050505081526020016002820160009054906101000a900473ffffffffffffffffffffffffffffffffffffffff1673ffffffffffffffffffffffffffffffffffffffff1673ffffffffffffffffffffffffffffffffffffffff16815260200160038201548152602001600482015481526020016005820160009054906101000a900473ffffffffffffffffffffffffffffffffffffffff1673ffffffffffffffffffffffffffffffffffffffff1673ffffffffffffffffffffffffffffffffffffffff168152505081526020018281526020016006600085815260200190815260200160002060009054906101000a900460ff16600281111561140e5761140d611b83565b5b81525083838151811061142457611423612048565b5b602002602001018190525050808061143b906120a6565b915050611099565b5080935050505090565b606060038054806020026020016040519081016040528092919081815260200182805480156114d157602002820191906000526020600020905b8160009054906101000a900473ffffffffffffffffffffffffffffffffffffffff1673ffffffffffffffffffffffffffffffffffffffff1681526020019060010190808311611487575b5050505050905090565b600081600001549050919050565b6001816000016000828254019250508190555050565b60008054906101000a900473ffffffffffffffffffffffffffffffffffffffff1673ffffffffffffffffffffffffffffffffffffffff166344c028fe60008484876040518563ffffffff1660e01b815260040161155f949392919061243f565b600060405180830381600087803b15801561157957600080fd5b505af115801561158d573d6000803e3d6000fd5b505050506040513d6000823e3d601f19601f820116820180604052508101906115b6919061257d565b50505050565b6003829080600181540180825580915050600190039060005260206000200160009091909190916101000a81548173ffffffffffffffffffffffffffffffffffffffff021916908373ffffffffffffffffffffffffffffffffffffffff160217905550806001819055505050565b8280546116369061224c565b90600052602060002090601f016020900481019282611658576000855561169f565b82601f1061167157805160ff191683800117855561169f565b8280016001018555821561169f579182015b8281111561169e578251825591602001919060010190611683565b5b5090506116ac9190611732565b5090565b6040518060800160405280600081526020016116ca61174f565b815260200160608152602001600060028111156116ea576116e9611b83565b5b81525090565b60405180604001604052806000600281111561170f5761170e611b83565b5b8152602001600073ffffffffffffffffffffffffffffffffffffffff1681525090565b5b8082111561174b576000816000905550600101611733565b5090565b6040518060c001604052806000600281111561176e5761176d611b83565b5b815260200160608152602001600073ffffffffffffffffffffffffffffffffffffffff1681526020016000815260200160008152602001600073ffffffffffffffffffffffffffffffffffffffff1681525090565b6000604051905090565b600080fd5b600080fd5b600080fd5b600080fd5b600080fd5b60008083601f8401126117fc576117fb6117d7565b5b8235905067ffffffffffffffff811115611819576118186117dc565b5b602083019150836001820283011115611835576118346117e1565b5b9250929050565b600073ffffffffffffffffffffffffffffffffffffffff82169050919050565b60006118678261183c565b9050919050565b6118778161185c565b811461188257600080fd5b50565b6000813590506118948161186e565b92915050565b6000819050919050565b6118ad8161189a565b81146118b857600080fd5b50565b6000813590506118ca816118a4565b92915050565b600080600080606085870312156118ea576118e96117cd565b5b600085013567ffffffffffffffff811115611908576119076117d2565b5b611914878288016117e6565b9450945050602061192787828801611885565b9250506040611938878288016118bb565b91505092959194509250565b61194d8161189a565b82525050565b60006020820190506119686000830184611944565b92915050565b6003811061197b57600080fd5b50565b60008135905061198d8161196e565b92915050565b600080604083850312156119aa576119a96117cd565b5b60006119b8858286016118bb565b92505060206119c98582860161197e565b9150509250929050565b600081519050919050565b600082825260208201905092915050565b60005b83811015611a0d5780820151818401526020810190506119f2565b83811115611a1c576000848401525b50505050565b6000601f19601f8301169050919050565b6000611a3e826119d3565b611a4881856119de565b9350611a588185602086016119ef565b611a6181611a22565b840191505092915050565b60006020820190508181036000830152611a868184611a33565b905092915050565b6000819050919050565b6000611ab3611aae611aa98461183c565b611a8e565b61183c565b9050919050565b6000611ac582611a98565b9050919050565b6000611ad782611aba565b9050919050565b611ae781611acc565b82525050565b6000602082019050611b026000830184611ade565b92915050565b60008060408385031215611b1f57611b1e6117cd565b5b6000611b2d85828601611885565b9250506020611b3e858286016118bb565b9150509250929050565b600081519050919050565b600082825260208201905092915050565b6000819050602082019050919050565b611b7d8161189a565b82525050565b7f4e487b7100000000000000000000000000000000000000000000000000000000600052602160045260246000fd5b60038110611bc357611bc2611b83565b5b50565b6000819050611bd482611bb2565b919050565b6000611be482611bc6565b9050919050565b611bf481611bd9565b82525050565b600081519050919050565b600082825260208201905092915050565b6000611c2182611bfa565b611c2b8185611c05565b9350611c3b8185602086016119ef565b611c4481611a22565b840191505092915050565b611c588161185c565b82525050565b600060c083016000830151611c766000860182611beb565b5060208301518482036020860152611c8e8282611c16565b9150506040830151611ca36040860182611c4f565b506060830151611cb66060860182611b74565b506080830151611cc96080860182611b74565b5060a0830151611cdc60a0860182611c4f565b508091505092915050565b600081519050919050565b600082825260208201905092915050565b6000819050602082019050919050565b60038110611d2457611d23611b83565b5b50565b6000819050611d3582611d13565b919050565b6000611d4582611d27565b9050919050565b611d5581611d3a565b82525050565b604082016000820151611d716000850182611d4c565b506020820151611d846020850182611c4f565b50505050565b6000611d968383611d5b565b60408301905092915050565b6000602082019050919050565b6000611dba82611ce7565b611dc48185611cf2565b9350611dcf83611d03565b8060005b83811015611e00578151611de78882611d8a565b9750611df283611da2565b925050600181019050611dd3565b5085935050505092915050565b60038110611e1e57611e1d611b83565b5b50565b6000819050611e2f82611e0d565b919050565b6000611e3f82611e21565b9050919050565b611e4f81611e34565b82525050565b6000608083016000830151611e6d6000860182611b74565b5060208301518482036020860152611e858282611c5e565b91505060408301518482036040860152611e9f8282611daf565b9150506060830151611eb46060860182611e46565b508091505092915050565b6000611ecb8383611e55565b905092915050565b6000602082019050919050565b6000611eeb82611b48565b611ef58185611b53565b935083602082028501611f0785611b64565b8060005b85811015611f435784840389528151611f248582611ebf565b9450611f2f83611ed3565b925060208a01995050600181019050611f0b565b50829750879550505050505092915050565b60006020820190508181036000830152611f6f8184611ee0565b905092915050565b600081519050919050565b600082825260208201905092915050565b6000819050602082019050919050565b6000611faf8383611c4f565b60208301905092915050565b6000602082019050919050565b6000611fd382611f77565b611fdd8185611f82565b9350611fe883611f93565b8060005b838110156120195781516120008882611fa3565b975061200b83611fbb565b925050600181019050611fec565b5085935050505092915050565b600060208201905081810360008301526120408184611fc8565b905092915050565b7f4e487b7100000000000000000000000000000000000000000000000000000000600052603260045260246000fd5b7f4e487b7100000000000000000000000000000000000000000000000000000000600052601160045260246000fd5b60006120b18261189a565b91507fffffffffffffffffffffffffffffffffffffffffffffffffffffffffffffffff8214156120e4576120e3612077565b5b600182019050919050565b7f4578656375746f72206d757374206265206f776e6572206f6620612064616f00600082015250565b6000612125601f836119de565b9150612130826120ef565b602082019050919050565b6000602082019050818103600083015261215481612118565b9050919050565b7f566f7465206d75737420626520696e2050454e44494e47207374617475730000600082015250565b6000612191601e836119de565b915061219c8261215b565b602082019050919050565b600060208201905081810360008301526121c081612184565b9050919050565b60006121d28261189a565b91506121dd8361189a565b9250827fffffffffffffffffffffffffffffffffffffffffffffffffffffffffffffffff0382111561221257612211612077565b5b828201905092915050565b7f4e487b7100000000000000000000000000000000000000000000000000000000600052602260045260246000fd5b6000600282049050600182168061226457607f821691505b602082108114156122785761227761221d565b5b50919050565b7f416464726573732063616e6e6f7420626520616e206f776e6572000000000000600082015250565b60006122b4601a836119de565b91506122bf8261227e565b602082019050919050565b600060208201905081810360008301526122e3816122a7565b9050919050565b7f4e6577206d696e696d756d206f776e65727320746f2065786563757465206d7560008201527f7374206265203c206f776e65727320636f756e74000000000000000000000000602082015250565b60006123466034836119de565b9150612351826122ea565b604082019050919050565b6000602082019050818103600083015261237581612339565b9050919050565b7f4e487b7100000000000000000000000000000000000000000000000000000000600052604160045260246000fd5b6000819050919050565b60006123d06123cb6123c6846123ab565b611a8e565b61189a565b9050919050565b6123e0816123b5565b82525050565b6123ef8161185c565b82525050565b600082825260208201905092915050565b600061241182611bfa565b61241b81856123f5565b935061242b8185602086016119ef565b61243481611a22565b840191505092915050565b600060808201905061245460008301876123d7565b61246160208301866123e6565b61246e6040830185611944565b81810360608301526124808184612406565b905095945050505050565b600080fd5b61249982611a22565b810181811067ffffffffffffffff821117156124b8576124b761237c565b5b80604052505050565b60006124cb6117c3565b90506124d78282612490565b919050565b600067ffffffffffffffff8211156124f7576124f661237c565b5b61250082611a22565b9050602081019050919050565b600061252061251b846124dc565b6124c1565b90508281526020810184848401111561253c5761253b61248b565b5b6125478482856119ef565b509392505050565b600082601f830112612564576125636117d7565b5b815161257484826020860161250d565b91505092915050565b600060208284031215612593576125926117cd565b5b600082015167ffffffffffffffff8111156125b1576125b06117d2565b5b6125bd8482850161254f565b9150509291505056fea2646970667358221220c977c6b308286a86bb136a122b04d0cf9ef33aeccbd934eee8fb3b5e287bbc5264736f6c63430008090033608060405260405162003c5f38038062003c5f8339818101604052810190620000299190620001e1565b6200003f816200004660201b6200103a1760201c565b5062000213565b620000566200014e60201b60201c565b73ffffffffffffffffffffffffffffffffffffffff168173ffffffffffffffffffffffffffffffffffffffff16146200014b5760008060009054906101000a900473ffffffffffffffffffffffffffffffffffffffff169050816000806101000a81548173ffffffffffffffffffffffffffffffffffffffff021916908373ffffffffffffffffffffffffffffffffffffffff1602179055508173ffffffffffffffffffffffffffffffffffffffff168173ffffffffffffffffffffffffffffffffffffffff167f8be0079c531659141344cd1fd0a4f28419497f9722a3daafe3b4186f6b6457e060405160405180910390a3505b50565b60008060009054906101000a900473ffffffffffffffffffffffffffffffffffffffff16905090565b600080fd5b600073ffffffffffffffffffffffffffffffffffffffff82169050919050565b6000620001a9826200017c565b9050919050565b620001bb816200019c565b8114620001c757600080fd5b50565b600081519050620001db81620001b0565b92915050565b600060208284031215620001fa57620001f962000177565b5b60006200020a84828501620001ca565b91505092915050565b613a3c80620002236000396000f3fe6080604052600436106100c65760003560e01c806354f6127f1161007f5780637f23690c116100595780637f23690c146102c25780638da5cb5b146102eb578063e30c397814610316578063f2fde38b14610341576100c7565b806354f6127f1461023e5780636bb56a141461027b578063715018a6146102ab576100c7565b806301ffc9a71461011757806314a6e293146101545780631626ba7e1461017d57806344c028fe146101ba5780634e3e6e9c146101ea5780634e71e0c814610227576100c7565b5b600034111561011557343373ffffffffffffffffffffffffffffffffffffffff167f7e71433ddf847725166244795048ecf3e3f9f35628254ecbf73605666423349360405160405180910390a35b005b34801561012357600080fd5b5061013e600480360381019061013991906120ba565b61036a565b60405161014b9190612102565b60405180910390f35b34801561016057600080fd5b5061017b60048036038101906101769190612442565b6104b8565b005b34801561018957600080fd5b506101a4600480360381019061019f91906124ba565b610563565b6040516101b19190612525565b60405180910390f35b6101d460048036038101906101cf919061262f565b6106a1565b6040516101e1919061273f565b60405180910390f35b3480156101f657600080fd5b50610211600480360381019061020c9190612761565b610d6b565b60405161021e91906128b6565b60405180910390f35b34801561023357600080fd5b5061023c610e21565b005b34801561024a57600080fd5b50610265600480360381019061026091906128d8565b610e2b565b604051610272919061273f565b60405180910390f35b61029560048036038101906102909190612905565b610e3d565b6040516102a2919061273f565b60405180910390f35b3480156102b757600080fd5b506102c0610fad565b005b3480156102ce57600080fd5b506102e960048036038101906102e491906124ba565b610fc1565b005b3480156102f757600080fd5b50610300610fd7565b60405161030d9190612974565b60405180910390f35b34801561032257600080fd5b5061032b611000565b6040516103389190612974565b60405180910390f35b34801561034d57600080fd5b506103686004803603810190610363919061298f565b611026565b005b6000631626ba7e60e01b7bffffffffffffffffffffffffffffffffffffffffffffffffffffffff1916827bffffffffffffffffffffffffffffffffffffffffffffffffffffffff191614806104035750639a3bfe8860e01b7bffffffffffffffffffffffffffffffffffffffffffffffffffffffff1916827bffffffffffffffffffffffffffffffffffffffffffffffffffffffff1916145b806104525750636bb56a1460e01b7bffffffffffffffffffffffffffffffffffffffffffffffffffffffff1916827bffffffffffffffffffffffffffffffffffffffffffffffffffffffff1916145b806104a1575063d225f16060e01b7bffffffffffffffffffffffffffffffffffffffffffffffffffffffff1916827bffffffffffffffffffffffffffffffffffffffffffffffffffffffff1916145b806104b157506104b082611139565b5b9050919050565b6104c061119a565b8051825114610504576040517f08c379a00000000000000000000000000000000000000000000000000000000081526004016104fb90612a3f565b60405180910390fd5b60005b825181101561055e5761054e83828151811061052657610525612a5f565b5b602002602001015183838151811061054157610540612a5f565b5b6020026020010151611211565b6105578161126a565b9050610507565b505050565b60008061056e610fd7565b905060008173ffffffffffffffffffffffffffffffffffffffff163b14610645576105a081631626ba7e60e01b611277565b6105b15763ffffffff60e01b61063d565b8073ffffffffffffffffffffffffffffffffffffffff16631626ba7e85856040518363ffffffff1660e01b81526004016105ec929190612a9d565b60206040518083038186803b15801561060457600080fd5b505afa158015610618573d6000803e3d6000fd5b505050506040513d601f19601f8201168201806040525081019061063c9190612ae2565b5b91505061069b565b61064f84846113a2565b73ffffffffffffffffffffffffffffffffffffffff168173ffffffffffffffffffffffffffffffffffffffff161461068e5763ffffffff60e01b610697565b631626ba7e60e01b5b9150505b92915050565b60606106ab61119a565b60005a905060008714156107af57844710156106fc576040517f08c379a00000000000000000000000000000000000000000000000000000000081526004016106f390612b81565b60405180910390fd5b61074c868686868080601f016020809104026020016040519081016040528093929190818152602001838380828437600081840152601f19601f82011690508083019250505050505050846113c9565b9150848673ffffffffffffffffffffffffffffffffffffffff16887f4810874456b8e6487bd861375cf6abd8e1c8bb5858c8ce36a86a04dabfac199e8787906107959190612bb9565b6040516107a29190612525565b60405180910390a4610d61565b60038714156108ad57600085146107fb576040517f08c379a00000000000000000000000000000000000000000000000000000000081526004016107f290612c8a565b60405180910390fd5b61084a8685858080601f016020809104026020016040519081016040528093929190818152602001838380828437600081840152601f19601f8201169050808301925050505050505083611489565b9150848673ffffffffffffffffffffffffffffffffffffffff16887f4810874456b8e6487bd861375cf6abd8e1c8bb5858c8ce36a86a04dabfac199e8787906108939190612bb9565b6040516108a09190612525565b60405180910390a4610d60565b60048714156109ab57600085146108f9576040517f08c379a00000000000000000000000000000000000000000000000000000000081526004016108f090612d1c565b60405180910390fd5b6109488685858080601f016020809104026020016040519081016040528093929190818152602001838380828437600081840152601f19601f8201169050808301925050505050505083611545565b9150848673ffffffffffffffffffffffffffffffffffffffff16887f4810874456b8e6487bd861375cf6abd8e1c8bb5858c8ce36a86a04dabfac199e8787906109919190612bb9565b60405161099e9190612525565b60405180910390a4610d5f565b6001871415610b2557600073ffffffffffffffffffffffffffffffffffffffff168673ffffffffffffffffffffffffffffffffffffffff1614610a23576040517f08c379a0000000000000000000000000000000000000000000000000000000008152600401610a1a90612dd4565b60405180910390fd5b84471015610a66576040517f08c379a0000000000000000000000000000000000000000000000000000000008152600401610a5d90612b81565b60405180910390fd5b6000610ab68686868080601f016020809104026020016040519081016040528093929190818152602001838380828437600081840152601f19601f82011690508083019250505050505050611601565b905080604051602001610ac99190612e3c565b6040516020818303038152906040529250858173ffffffffffffffffffffffffffffffffffffffff16897f01c42bd7e97a66166063b02fce6924e6656b6c2c61966630165095c4fb0b7b2f60405160405180910390a450610d5e565b6002871415610d2257600073ffffffffffffffffffffffffffffffffffffffff168673ffffffffffffffffffffffffffffffffffffffff1614610b9d576040517f08c379a0000000000000000000000000000000000000000000000000000000008152600401610b9490612dd4565b60405180910390fd5b84471015610be0576040517f08c379a0000000000000000000000000000000000000000000000000000000008152600401610bd790612b81565b60405180910390fd5b6000610c3f85858080601f016020809104026020016040519081016040528093929190818152602001838380828437600081840152601f19601f82011690508083019250505050505050602087879050610c3a9190612e86565b6116c7565b90506000610ca286868080601f016020809104026020016040519081016040528093929190818152602001838380828437600081840152601f19601f820116905080830192505050505050506000602089899050610c9d9190612e86565b61172e565b90506000610cb188848461184c565b905080604051602001610cc49190612e3c565b6040516020818303038152906040529450878173ffffffffffffffffffffffffffffffffffffffff168b7f01c42bd7e97a66166063b02fce6924e6656b6c2c61966630165095c4fb0b7b2f60405160405180910390a4505050610d5d565b6040517f08c379a0000000000000000000000000000000000000000000000000000000008152600401610d5490612f06565b60405180910390fd5b5b5b5b5b5095945050505050565b6060815167ffffffffffffffff811115610d8857610d87612133565b5b604051908082528060200260200182016040528015610dbb57816020015b6060815260200190600190039081610da65790505b50905060005b8251811015610e1b57610ded838281518110610de057610ddf612a5f565b5b602002602001015161195d565b828281518110610e0057610dff612a5f565b5b6020026020010181905250610e148161126a565b9050610dc1565b50919050565b610e29611a02565b565b6060610e368261195d565b9050919050565b60606000610e6d7f0cfc51aec37c55a4d0b1a65c6255c4bf2fbdf6277f3cc0730c45b828b6db8b4760001b61195d565b90506014815110610f3c57600081610e8490612f77565b60601c9050610e9a8163a245bbda60e01b611277565b15610f3a578073ffffffffffffffffffffffffffffffffffffffff1663a245bbda33348989896040518663ffffffff1660e01b8152600401610ee095949392919061301a565b600060405180830381600087803b158015610efa57600080fd5b505af1158015610f0e573d6000803e3d6000fd5b505050506040513d6000823e3d601f19601f82011682018060405250810190610f3791906130d8565b92505b505b81604051610f4a919061315d565b6040518091039020853373ffffffffffffffffffffffffffffffffffffffff167f9c3ba68eb5742b8e3961aea0afc7371a71bf433c8a67a831803b64c064a178c2348888604051610f9d93929190613174565b60405180910390a4509392505050565b610fb561119a565b610fbf600061103a565b565b610fc961119a565b610fd38282611211565b5050565b60008060009054906101000a900473ffffffffffffffffffffffffffffffffffffffff16905090565b600260009054906101000a900473ffffffffffffffffffffffffffffffffffffffff1681565b61102e61119a565b61103781611b01565b50565b611042610fd7565b73ffffffffffffffffffffffffffffffffffffffff168173ffffffffffffffffffffffffffffffffffffffff16146111365760008060009054906101000a900473ffffffffffffffffffffffffffffffffffffffff169050816000806101000a81548173ffffffffffffffffffffffffffffffffffffffff021916908373ffffffffffffffffffffffffffffffffffffffff1602179055508173ffffffffffffffffffffffffffffffffffffffff168173ffffffffffffffffffffffffffffffffffffffff167f8be0079c531659141344cd1fd0a4f28419497f9722a3daafe3b4186f6b6457e060405160405180910390a3505b50565b600063714df77c60e01b7bffffffffffffffffffffffffffffffffffffffffffffffffffffffff1916827bffffffffffffffffffffffffffffffffffffffffffffffffffffffff19161480611193575061119282611b45565b5b9050919050565b3373ffffffffffffffffffffffffffffffffffffffff166111b9610fd7565b73ffffffffffffffffffffffffffffffffffffffff161461120f576040517f08c379a0000000000000000000000000000000000000000000000000000000008152600401611206906131f2565b60405180910390fd5b565b80600160008481526020019081526020016000209080519060200190611238929190611fab565b50817fcdf4e344c0d23d4cdd0474039d176c55b19d531070dbe17856bfb993a5b5720b60405160405180910390a25050565b6000600182019050919050565b6000806301ffc9a760e01b836040516024016112939190612525565b604051602081830303815290604052907bffffffffffffffffffffffffffffffffffffffffffffffffffffffff19166020820180517bffffffffffffffffffffffffffffffffffffffffffffffffffffffff838183161783525050505090506000808573ffffffffffffffffffffffffffffffffffffffff166175308460405161131d919061315d565b6000604051808303818686fa925050503d8060008114611359576040519150601f19603f3d011682016040523d82523d6000602084013e61135e565b606091505b5091509150602081511015611379576000935050505061139c565b818015611396575080806020019051810190611395919061323e565b5b93505050505b92915050565b60008060006113b18585611ba6565b915091506113be81611bf8565b819250505092915050565b60606000808673ffffffffffffffffffffffffffffffffffffffff168487876040516113f5919061315d565b600060405180830381858888f193505050503d8060008114611433576040519150601f19603f3d011682016040523d82523d6000602084013e611438565b606091505b509150915061147d82826040518060400160405280601581526020017f455243373235583a20556e6b6e6f77204572726f720000000000000000000000815250611dcd565b92505050949350505050565b60606000808573ffffffffffffffffffffffffffffffffffffffff1684866040516114b4919061315d565b6000604051808303818686fa925050503d80600081146114f0576040519150601f19603f3d011682016040523d82523d6000602084013e6114f5565b606091505b509150915061153a82826040518060400160405280601581526020017f455243373235583a20556e6b6e6f77204572726f720000000000000000000000815250611dcd565b925050509392505050565b60606000808573ffffffffffffffffffffffffffffffffffffffff168486604051611570919061315d565b6000604051808303818686f4925050503d80600081146115ac576040519150601f19603f3d011682016040523d82523d6000602084013e6115b1565b606091505b50915091506115f682826040518060400160405280601581526020017f455243373235583a20556e6b6e6f77204572726f720000000000000000000000815250611dcd565b925050509392505050565b60008082511415611647576040517f08c379a000000000000000000000000000000000000000000000000000000000815260040161163e906132b7565b60405180910390fd5b81516020830184f09050600073ffffffffffffffffffffffffffffffffffffffff168173ffffffffffffffffffffffffffffffffffffffff1614156116c1576040517f08c379a00000000000000000000000000000000000000000000000000000000081526004016116b890613323565b60405180910390fd5b92915050565b60006020826116d69190613343565b83511015611719576040517f08c379a0000000000000000000000000000000000000000000000000000000008152600401611710906133e5565b60405180910390fd5b60008260208501015190508091505092915050565b606081601f8361173e9190613343565b101561177f576040517f08c379a000000000000000000000000000000000000000000000000000000000815260040161177690613451565b60405180910390fd5b818361178b9190613343565b845110156117ce576040517f08c379a00000000000000000000000000000000000000000000000000000000081526004016117c5906134bd565b60405180910390fd5b60608215600081146117ef5760405191506000825260208201604052611840565b6040519150601f8416801560200281840101858101878315602002848b0101015b8183101561182d5780518352602083019250602081019050611810565b50868552601f19601f8301166040525050505b50809150509392505050565b60008084471015611892576040517f08c379a000000000000000000000000000000000000000000000000000000000815260040161188990613529565b60405180910390fd5b6000835114156118d7576040517f08c379a00000000000000000000000000000000000000000000000000000000081526004016118ce90613595565b60405180910390fd5b8383516020850187f59050600073ffffffffffffffffffffffffffffffffffffffff168173ffffffffffffffffffffffffffffffffffffffff161415611952576040517f08c379a000000000000000000000000000000000000000000000000000000000815260040161194990613601565b60405180910390fd5b809150509392505050565b606060016000838152602001908152602001600020805461197d90613650565b80601f01602080910402602001604051908101604052809291908181526020018280546119a990613650565b80156119f65780601f106119cb576101008083540402835291602001916119f6565b820191906000526020600020905b8154815290600101906020018083116119d957829003601f168201915b50505050509050919050565b600260009054906101000a900473ffffffffffffffffffffffffffffffffffffffff1673ffffffffffffffffffffffffffffffffffffffff163373ffffffffffffffffffffffffffffffffffffffff1614611a92576040517f08c379a0000000000000000000000000000000000000000000000000000000008152600401611a89906136f4565b60405180910390fd5b611abd600260009054906101000a900473ffffffffffffffffffffffffffffffffffffffff1661103a565b6000600260006101000a81548173ffffffffffffffffffffffffffffffffffffffff021916908373ffffffffffffffffffffffffffffffffffffffff160217905550565b80600260006101000a81548173ffffffffffffffffffffffffffffffffffffffff021916908373ffffffffffffffffffffffffffffffffffffffff16021790555050565b60006344c028fe60e01b7bffffffffffffffffffffffffffffffffffffffffffffffffffffffff1916827bffffffffffffffffffffffffffffffffffffffffffffffffffffffff19161480611b9f5750611b9e82611e34565b5b9050919050565b600080604183511415611be85760008060006020860151925060408601519150606086015160001a9050611bdc87828585611e9e565b94509450505050611bf1565b60006002915091505b9250929050565b60006004811115611c0c57611c0b613714565b5b816004811115611c1f57611c1e613714565b5b1415611c2a57611dca565b60016004811115611c3e57611c3d613714565b5b816004811115611c5157611c50613714565b5b1415611c92576040517f08c379a0000000000000000000000000000000000000000000000000000000008152600401611c899061378f565b60405180910390fd5b60026004811115611ca657611ca5613714565b5b816004811115611cb957611cb8613714565b5b1415611cfa576040517f08c379a0000000000000000000000000000000000000000000000000000000008152600401611cf1906137fb565b60405180910390fd5b60036004811115611d0e57611d0d613714565b5b816004811115611d2157611d20613714565b5b1415611d62576040517f08c379a0000000000000000000000000000000000000000000000000000000008152600401611d599061388d565b60405180910390fd5b600480811115611d7557611d74613714565b5b816004811115611d8857611d87613714565b5b1415611dc9576040517f08c379a0000000000000000000000000000000000000000000000000000000008152600401611dc09061391f565b60405180910390fd5b5b50565b60608315611ddd57829050611e2d565b600083511115611df05782518084602001fd5b816040517f08c379a0000000000000000000000000000000000000000000000000000000008152600401611e249190613983565b60405180910390fd5b9392505050565b60007f01ffc9a7000000000000000000000000000000000000000000000000000000007bffffffffffffffffffffffffffffffffffffffffffffffffffffffff1916827bffffffffffffffffffffffffffffffffffffffffffffffffffffffff1916149050919050565b6000807f7fffffffffffffffffffffffffffffff5d576e7357a4501ddfe92f46681b20a08360001c1115611ed9576000600391509150611fa2565b601b8560ff1614158015611ef15750601c8560ff1614155b15611f03576000600491509150611fa2565b600060018787878760405160008152602001604052604051611f2894939291906139c1565b6020604051602081039080840390855afa158015611f4a573d6000803e3d6000fd5b505050602060405103519050600073ffffffffffffffffffffffffffffffffffffffff168173ffffffffffffffffffffffffffffffffffffffff161415611f9957600060019250925050611fa2565b80600092509250505b94509492505050565b828054611fb790613650565b90600052602060002090601f016020900481019282611fd95760008555612020565b82601f10611ff257805160ff1916838001178555612020565b82800160010185558215612020579182015b8281111561201f578251825591602001919060010190612004565b5b50905061202d9190612031565b5090565b5b8082111561204a576000816000905550600101612032565b5090565b6000604051905090565b600080fd5b600080fd5b60007fffffffff0000000000000000000000000000000000000000000000000000000082169050919050565b61209781612062565b81146120a257600080fd5b50565b6000813590506120b48161208e565b92915050565b6000602082840312156120d0576120cf612058565b5b60006120de848285016120a5565b91505092915050565b60008115159050919050565b6120fc816120e7565b82525050565b600060208201905061211760008301846120f3565b92915050565b600080fd5b6000601f19601f8301169050919050565b7f4e487b7100000000000000000000000000000000000000000000000000000000600052604160045260246000fd5b61216b82612122565b810181811067ffffffffffffffff8211171561218a57612189612133565b5b80604052505050565b600061219d61204e565b90506121a98282612162565b919050565b600067ffffffffffffffff8211156121c9576121c8612133565b5b602082029050602081019050919050565b600080fd5b6000819050919050565b6121f2816121df565b81146121fd57600080fd5b50565b60008135905061220f816121e9565b92915050565b6000612228612223846121ae565b612193565b9050808382526020820190506020840283018581111561224b5761224a6121da565b5b835b8181101561227457806122608882612200565b84526020840193505060208101905061224d565b5050509392505050565b600082601f8301126122935761229261211d565b5b81356122a3848260208601612215565b91505092915050565b600067ffffffffffffffff8211156122c7576122c6612133565b5b602082029050602081019050919050565b600080fd5b600067ffffffffffffffff8211156122f8576122f7612133565b5b61230182612122565b9050602081019050919050565b82818337600083830152505050565b600061233061232b846122dd565b612193565b90508281526020810184848401111561234c5761234b6122d8565b5b61235784828561230e565b509392505050565b600082601f8301126123745761237361211d565b5b813561238484826020860161231d565b91505092915050565b60006123a061239b846122ac565b612193565b905080838252602082019050602084028301858111156123c3576123c26121da565b5b835b8181101561240a57803567ffffffffffffffff8111156123e8576123e761211d565b5b8086016123f5898261235f565b855260208501945050506020810190506123c5565b5050509392505050565b600082601f8301126124295761242861211d565b5b813561243984826020860161238d565b91505092915050565b6000806040838503121561245957612458612058565b5b600083013567ffffffffffffffff8111156124775761247661205d565b5b6124838582860161227e565b925050602083013567ffffffffffffffff8111156124a4576124a361205d565b5b6124b085828601612414565b9150509250929050565b600080604083850312156124d1576124d0612058565b5b60006124df85828601612200565b925050602083013567ffffffffffffffff811115612500576124ff61205d565b5b61250c8582860161235f565b9150509250929050565b61251f81612062565b82525050565b600060208201905061253a6000830184612516565b92915050565b6000819050919050565b61255381612540565b811461255e57600080fd5b50565b6000813590506125708161254a565b92915050565b600073ffffffffffffffffffffffffffffffffffffffff82169050919050565b60006125a182612576565b9050919050565b6125b181612596565b81146125bc57600080fd5b50565b6000813590506125ce816125a8565b92915050565b600080fd5b60008083601f8401126125ef576125ee61211d565b5b8235905067ffffffffffffffff81111561260c5761260b6125d4565b5b602083019150836001820283011115612628576126276121da565b5b9250929050565b60008060008060006080868803121561264b5761264a612058565b5b600061265988828901612561565b955050602061266a888289016125bf565b945050604061267b88828901612561565b935050606086013567ffffffffffffffff81111561269c5761269b61205d565b5b6126a8888289016125d9565b92509250509295509295909350565b600081519050919050565b600082825260208201905092915050565b60005b838110156126f15780820151818401526020810190506126d6565b83811115612700576000848401525b50505050565b6000612711826126b7565b61271b81856126c2565b935061272b8185602086016126d3565b61273481612122565b840191505092915050565b600060208201905081810360008301526127598184612706565b905092915050565b60006020828403121561277757612776612058565b5b600082013567ffffffffffffffff8111156127955761279461205d565b5b6127a18482850161227e565b91505092915050565b600081519050919050565b600082825260208201905092915050565b6000819050602082019050919050565b600082825260208201905092915050565b60006127f2826126b7565b6127fc81856127d6565b935061280c8185602086016126d3565b61281581612122565b840191505092915050565b600061282c83836127e7565b905092915050565b6000602082019050919050565b600061284c826127aa565b61285681856127b5565b935083602082028501612868856127c6565b8060005b858110156128a457848403895281516128858582612820565b945061289083612834565b925060208a0199505060018101905061286c565b50829750879550505050505092915050565b600060208201905081810360008301526128d08184612841565b905092915050565b6000602082840312156128ee576128ed612058565b5b60006128fc84828501612200565b91505092915050565b60008060006040848603121561291e5761291d612058565b5b600061292c86828701612200565b935050602084013567ffffffffffffffff81111561294d5761294c61205d565b5b612959868287016125d9565b92509250509250925092565b61296e81612596565b82525050565b60006020820190506129896000830184612965565b92915050565b6000602082840312156129a5576129a4612058565b5b60006129b3848285016125bf565b91505092915050565b600082825260208201905092915050565b7f4b657973206c656e677468206e6f7420657175616c20746f2076616c7565732060008201527f6c656e6774680000000000000000000000000000000000000000000000000000602082015250565b6000612a296026836129bc565b9150612a34826129cd565b604082019050919050565b60006020820190508181036000830152612a5881612a1c565b9050919050565b7f4e487b7100000000000000000000000000000000000000000000000000000000600052603260045260246000fd5b612a97816121df565b82525050565b6000604082019050612ab26000830185612a8e565b8181036020830152612ac48184612706565b90509392505050565b600081519050612adc8161208e565b92915050565b600060208284031215612af857612af7612058565b5b6000612b0684828501612acd565b91505092915050565b7f455243373235583a20696e73756666696369656e742062616c616e636520666f60008201527f722063616c6c0000000000000000000000000000000000000000000000000000602082015250565b6000612b6b6026836129bc565b9150612b7682612b0f565b604082019050919050565b60006020820190508181036000830152612b9a81612b5e565b9050919050565b600082905092915050565b600082821b905092915050565b6000612bc58383612ba1565b82612bd08135612062565b92506004821015612c1057612c0b7fffffffff0000000000000000000000000000000000000000000000000000000083600403600802612bac565b831692505b505092915050565b7f455243373235583a2063616e6e6f74207472616e736665722076616c7565207760008201527f697468206f7065726174696f6e2053544154494343414c4c0000000000000000602082015250565b6000612c746038836129bc565b9150612c7f82612c18565b604082019050919050565b60006020820190508181036000830152612ca381612c67565b9050919050565b7f455243373235583a2063616e6e6f74207472616e736665722076616c7565207760008201527f697468206f7065726174696f6e2044454c454741544543414c4c000000000000602082015250565b6000612d06603a836129bc565b9150612d1182612caa565b604082019050919050565b60006020820190508181036000830152612d3581612cf9565b9050919050565b7f455243373235583a20435245415445206f7065726174696f6e7320726571756960008201527f726520746865207265636569766572206164647265737320746f20626520656d60208201527f7074790000000000000000000000000000000000000000000000000000000000604082015250565b6000612dbe6043836129bc565b9150612dc982612d3c565b606082019050919050565b60006020820190508181036000830152612ded81612db1565b9050919050565b60008160601b9050919050565b6000612e0c82612df4565b9050919050565b6000612e1e82612e01565b9050919050565b612e36612e3182612596565b612e13565b82525050565b6000612e488284612e25565b60148201915081905092915050565b7f4e487b7100000000000000000000000000000000000000000000000000000000600052601160045260246000fd5b6000612e9182612540565b9150612e9c83612540565b925082821015612eaf57612eae612e57565b5b828203905092915050565b7f57726f6e67206f7065726174696f6e2074797065000000000000000000000000600082015250565b6000612ef06014836129bc565b9150612efb82612eba565b602082019050919050565b60006020820190508181036000830152612f1f81612ee3565b9050919050565b6000819050602082019050919050565b60007fffffffffffffffffffffffffffffffffffffffff00000000000000000000000082169050919050565b6000612f6e8251612f36565b80915050919050565b6000612f82826126b7565b82612f8c84612f26565b9050612f9781612f62565b92506014821015612fd757612fd27fffffffffffffffffffffffffffffffffffffffff00000000000000000000000083601403600802612bac565b831692505b5050919050565b612fe781612540565b82525050565b6000612ff983856126c2565b935061300683858461230e565b61300f83612122565b840190509392505050565b600060808201905061302f6000830188612965565b61303c6020830187612fde565b6130496040830186612a8e565b818103606083015261305c818486612fed565b90509695505050505050565b600061307b613076846122dd565b612193565b905082815260208101848484011115613097576130966122d8565b5b6130a28482856126d3565b509392505050565b600082601f8301126130bf576130be61211d565b5b81516130cf848260208601613068565b91505092915050565b6000602082840312156130ee576130ed612058565b5b600082015167ffffffffffffffff81111561310c5761310b61205d565b5b613118848285016130aa565b91505092915050565b600081905092915050565b6000613137826126b7565b6131418185613121565b93506131518185602086016126d3565b80840191505092915050565b6000613169828461312c565b915081905092915050565b60006040820190506131896000830186612fde565b818103602083015261319c818486612fed565b9050949350505050565b7f4f776e61626c653a2063616c6c6572206973206e6f7420746865206f776e6572600082015250565b60006131dc6020836129bc565b91506131e7826131a6565b602082019050919050565b6000602082019050818103600083015261320b816131cf565b9050919050565b61321b816120e7565b811461322657600080fd5b50565b60008151905061323881613212565b92915050565b60006020828403121561325457613253612058565b5b600061326284828501613229565b91505092915050565b7f6e6f20636f6e74726163742062797465636f64652070726f7669646564000000600082015250565b60006132a1601d836129bc565b91506132ac8261326b565b602082019050919050565b600060208201905081810360008301526132d081613294565b9050919050565b7f436f756c64206e6f74206465706c6f7920636f6e747261637400000000000000600082015250565b600061330d6019836129bc565b9150613318826132d7565b602082019050919050565b6000602082019050818103600083015261333c81613300565b9050919050565b600061334e82612540565b915061335983612540565b9250827fffffffffffffffffffffffffffffffffffffffffffffffffffffffffffffffff0382111561338e5761338d612e57565b5b828201905092915050565b7f746f427974657333325f6f75744f66426f756e64730000000000000000000000600082015250565b60006133cf6015836129bc565b91506133da82613399565b602082019050919050565b600060208201905081810360008301526133fe816133c2565b9050919050565b7f736c6963655f6f766572666c6f77000000000000000000000000000000000000600082015250565b600061343b600e836129bc565b915061344682613405565b602082019050919050565b6000602082019050818103600083015261346a8161342e565b9050919050565b7f736c6963655f6f75744f66426f756e6473000000000000000000000000000000600082015250565b60006134a76011836129bc565b91506134b282613471565b602082019050919050565b600060208201905081810360008301526134d68161349a565b9050919050565b7f437265617465323a20696e73756666696369656e742062616c616e6365000000600082015250565b6000613513601d836129bc565b915061351e826134dd565b602082019050919050565b6000602082019050818103600083015261354281613506565b9050919050565b7f437265617465323a2062797465636f6465206c656e677468206973207a65726f600082015250565b600061357f6020836129bc565b915061358a82613549565b602082019050919050565b600060208201905081810360008301526135ae81613572565b9050919050565b7f437265617465323a204661696c6564206f6e206465706c6f7900000000000000600082015250565b60006135eb6019836129bc565b91506135f6826135b5565b602082019050919050565b6000602082019050818103600083015261361a816135de565b9050919050565b7f4e487b7100000000000000000000000000000000000000000000000000000000600052602260045260246000fd5b6000600282049050600182168061366857607f821691505b6020821081141561367c5761367b613621565b5b50919050565b7f4f776e61626c65436c61696d3a2063616c6c6572206973206e6f74207468652060008201527f70656e64696e674f776e65720000000000000000000000000000000000000000602082015250565b60006136de602c836129bc565b91506136e982613682565b604082019050919050565b6000602082019050818103600083015261370d816136d1565b9050919050565b7f4e487b7100000000000000000000000000000000000000000000000000000000600052602160045260246000fd5b7f45434453413a20696e76616c6964207369676e61747572650000000000000000600082015250565b60006137796018836129bc565b915061378482613743565b602082019050919050565b600060208201905081810360008301526137a88161376c565b9050919050565b7f45434453413a20696e76616c6964207369676e6174757265206c656e67746800600082015250565b60006137e5601f836129bc565b91506137f0826137af565b602082019050919050565b60006020820190508181036000830152613814816137d8565b9050919050565b7f45434453413a20696e76616c6964207369676e6174757265202773272076616c60008201527f7565000000000000000000000000000000000000000000000000000000000000602082015250565b60006138776022836129bc565b91506138828261381b565b604082019050919050565b600060208201905081810360008301526138a68161386a565b9050919050565b7f45434453413a20696e76616c6964207369676e6174757265202776272076616c60008201527f7565000000000000000000000000000000000000000000000000000000000000602082015250565b60006139096022836129bc565b9150613914826138ad565b604082019050919050565b60006020820190508181036000830152613938816138fc565b9050919050565b600081519050919050565b60006139558261393f565b61395f81856129bc565b935061396f8185602086016126d3565b61397881612122565b840191505092915050565b6000602082019050818103600083015261399d818461394a565b905092915050565b600060ff82169050919050565b6139bb816139a5565b82525050565b60006080820190506139d66000830187612a8e565b6139e360208301866139b2565b6139f06040830185612a8e565b6139fd6060830184612a8e565b9594505050505056fea2646970667358221220c72da2d33b6cf18ab6abae81aa2a2219a7e3712e350e5c8bf0eb805b13ff99db64736f6c63430008090033",
  "linkReferences": {},
  "deployedLinkReferences": {}
}