{
  "_format": "hh-sol-artifact-1",
  "contractName": "DaoVotingManager",
  "sourceName": "contracts/DaoVotingManager.sol",
  "abi": [
    {
      "inputs": [
        {
          "internalType": "address",
          "name": "_daoGovernanceTokenAddress",
          "type": "address"
        },
        {
          "internalType": "string",
          "name": "_daoName",
          "type": "string"
        },
        {
          "internalType": "uint256",
          "name": "_tokensToCreateProposal",
          "type": "uint256"
        },
        {
          "internalType": "uint256",
          "name": "_minTokensToExecuteProposal",
          "type": "uint256"
        },
        {
          "internalType": "uint256",
          "name": "_proposalTimeToVoteInSeconds",
          "type": "uint256"
        }
      ],
      "stateMutability": "nonpayable",
      "type": "constructor"
    },
    {
      "inputs": [],
      "name": "account",
      "outputs": [
        {
          "internalType": "contract LSP0ERC725Account",
          "name": "",
          "type": "address"
        }
      ],
      "stateMutability": "view",
      "type": "function"
    },
    {
      "inputs": [
        {
          "internalType": "address",
          "name": "",
          "type": "address"
        }
      ],
      "name": "addressToLastVotedProposalId",
      "outputs": [
        {
          "internalType": "uint256",
          "name": "",
          "type": "uint256"
        }
      ],
      "stateMutability": "view",
      "type": "function"
    },
    {
      "inputs": [
        {
          "internalType": "address",
          "name": "",
          "type": "address"
        },
        {
          "internalType": "uint256",
          "name": "",
          "type": "uint256"
        }
      ],
      "name": "addressToProposalIdToVote",
      "outputs": [
        {
          "internalType": "enum DaoVotingManager.Vote",
          "name": "",
          "type": "uint8"
        }
      ],
      "stateMutability": "view",
      "type": "function"
    },
    {
      "inputs": [
        {
          "internalType": "uint256",
          "name": "_operation",
          "type": "uint256"
        },
        {
          "internalType": "address",
          "name": "_to",
          "type": "address"
        },
        {
          "internalType": "uint256",
          "name": "_value",
          "type": "uint256"
        },
        {
          "internalType": "bytes",
          "name": "_data",
          "type": "bytes"
        }
      ],
      "name": "createProposal",
      "outputs": [],
      "stateMutability": "nonpayable",
      "type": "function"
    },
    {
      "inputs": [],
      "name": "daoGovernanceToken",
      "outputs": [
        {
          "internalType": "contract ILSP7DigitalAsset",
          "name": "",
          "type": "address"
        }
      ],
      "stateMutability": "view",
      "type": "function"
    },
    {
      "inputs": [],
      "name": "daoName",
      "outputs": [
        {
          "internalType": "string",
          "name": "",
          "type": "string"
        }
      ],
      "stateMutability": "view",
      "type": "function"
    },
    {
      "inputs": [
        {
          "internalType": "uint256",
          "name": "_amount",
          "type": "uint256"
        }
      ],
      "name": "deposit",
      "outputs": [],
      "stateMutability": "nonpayable",
      "type": "function"
    },
    {
      "inputs": [
        {
          "internalType": "address",
          "name": "",
          "type": "address"
        }
      ],
      "name": "depositorsBalances",
      "outputs": [
        {
          "internalType": "uint256",
          "name": "",
          "type": "uint256"
        }
      ],
      "stateMutability": "view",
      "type": "function"
    },
    {
      "inputs": [
        {
          "internalType": "uint256",
          "name": "_proposalId",
          "type": "uint256"
        }
      ],
      "name": "execute",
      "outputs": [],
      "stateMutability": "nonpayable",
      "type": "function"
    },
    {
      "inputs": [],
      "name": "getProposals",
      "outputs": [
        {
          "components": [
            {
              "internalType": "uint256",
              "name": "id",
              "type": "uint256"
            },
            {
              "internalType": "address",
              "name": "createdBy",
              "type": "address"
            },
            {
              "internalType": "uint256",
              "name": "createdAt",
              "type": "uint256"
            },
            {
              "internalType": "uint256",
              "name": "operation",
              "type": "uint256"
            },
            {
              "internalType": "address",
              "name": "to",
              "type": "address"
            },
            {
              "internalType": "uint256",
              "name": "value",
              "type": "uint256"
            },
            {
              "internalType": "bytes",
              "name": "payload",
              "type": "bytes"
            },
            {
              "internalType": "uint256",
              "name": "yesVotes",
              "type": "uint256"
            },
            {
              "internalType": "uint256",
              "name": "noVotes",
              "type": "uint256"
            },
            {
              "internalType": "enum DaoVotingManager.Status",
              "name": "status",
              "type": "uint8"
            }
          ],
          "internalType": "struct DaoVotingManager.Proposal[]",
          "name": "",
          "type": "tuple[]"
        }
      ],
      "stateMutability": "view",
      "type": "function"
    },
    {
      "inputs": [],
      "name": "minTokensToExecuteProposal",
      "outputs": [
        {
          "internalType": "uint256",
          "name": "",
          "type": "uint256"
        }
      ],
      "stateMutability": "view",
      "type": "function"
    },
    {
      "inputs": [],
      "name": "proposalTimeToVoteInSeconds",
      "outputs": [
        {
          "internalType": "uint256",
          "name": "",
          "type": "uint256"
        }
      ],
      "stateMutability": "view",
      "type": "function"
    },
    {
      "inputs": [],
      "name": "tokensToCreateProposal",
      "outputs": [
        {
          "internalType": "uint256",
          "name": "",
          "type": "uint256"
        }
      ],
      "stateMutability": "view",
      "type": "function"
    },
    {
      "inputs": [
        {
          "internalType": "uint256",
          "name": "_proposalId",
          "type": "uint256"
        },
        {
          "internalType": "bool",
          "name": "_vote",
          "type": "bool"
        }
      ],
      "name": "vote",
      "outputs": [],
      "stateMutability": "nonpayable",
      "type": "function"
    },
    {
      "inputs": [],
      "name": "withdraw",
      "outputs": [],
      "stateMutability": "nonpayable",
      "type": "function"
    }
  ],
  "bytecode": "0x60806040526040518060200160405280600181525060076000820151816000015550503480156200002f57600080fd5b5060405162006e3f38038062006e3f833981810160405281019062000055919062000577565b84600160006101000a81548173ffffffffffffffffffffffffffffffffffffffff021916908373ffffffffffffffffffffffffffffffffffffffff1602179055506000600160009054906101000a900473ffffffffffffffffffffffffffffffffffffffff1673ffffffffffffffffffffffffffffffffffffffff166318160ddd6040518163ffffffff1660e01b815260040160206040518083038186803b1580156200010157600080fd5b505afa15801562000116573d6000803e3d6000fd5b505050506040513d601f19601f820116820180604052508101906200013c91906200061e565b90508084111562000184576040517f08c379a00000000000000000000000000000000000000000000000000000000081526004016200017b90620006d7565b60405180910390fd5b80831115620001ca576040517f08c379a0000000000000000000000000000000000000000000000000000000008152600401620001c1906200076f565b60405180910390fd5b30604051620001d9906200027c565b620001e59190620007a2565b604051809103906000f08015801562000202573d6000803e3d6000fd5b506000806101000a81548173ffffffffffffffffffffffffffffffffffffffff021916908373ffffffffffffffffffffffffffffffffffffffff16021790555084600290805190602001906200025a9291906200028a565b5083600381905550826004819055508160058190555050505050505062000824565b613c5f80620031e083390190565b8280546200029890620007ee565b90600052602060002090601f016020900481019282620002bc576000855562000308565b82601f10620002d757805160ff191683800117855562000308565b8280016001018555821562000308579182015b8281111562000307578251825591602001919060010190620002ea565b5b5090506200031791906200031b565b5090565b5b80821115620003365760008160009055506001016200031c565b5090565b6000604051905090565b600080fd5b600080fd5b600073ffffffffffffffffffffffffffffffffffffffff82169050919050565b60006200037b826200034e565b9050919050565b6200038d816200036e565b81146200039957600080fd5b50565b600081519050620003ad8162000382565b92915050565b600080fd5b600080fd5b6000601f19601f8301169050919050565b7f4e487b7100000000000000000000000000000000000000000000000000000000600052604160045260246000fd5b6200040882620003bd565b810181811067ffffffffffffffff821117156200042a5762000429620003ce565b5b80604052505050565b60006200043f6200033a565b90506200044d8282620003fd565b919050565b600067ffffffffffffffff82111562000470576200046f620003ce565b5b6200047b82620003bd565b9050602081019050919050565b60005b83811015620004a85780820151818401526020810190506200048b565b83811115620004b8576000848401525b50505050565b6000620004d5620004cf8462000452565b62000433565b905082815260208101848484011115620004f457620004f3620003b8565b5b6200050184828562000488565b509392505050565b600082601f830112620005215762000520620003b3565b5b815162000533848260208601620004be565b91505092915050565b6000819050919050565b62000551816200053c565b81146200055d57600080fd5b50565b600081519050620005718162000546565b92915050565b600080600080600060a0868803121562000596576200059562000344565b5b6000620005a6888289016200039c565b955050602086015167ffffffffffffffff811115620005ca57620005c962000349565b5b620005d88882890162000509565b9450506040620005eb8882890162000560565b9350506060620005fe8882890162000560565b9250506080620006118882890162000560565b9150509295509295909350565b60006020828403121562000637576200063662000344565b5b6000620006478482850162000560565b91505092915050565b600082825260208201905092915050565b7f546f6b656e7320746f206372656174652070726f706f73616c206d757374206260008201527f65203c3d20746f74616c20737570706c79000000000000000000000000000000602082015250565b6000620006bf60318362000650565b9150620006cc8262000661565b604082019050919050565b60006020820190508181036000830152620006f281620006b0565b9050919050565b7f4d696e20746f6b656e7320746f206372656174652070726f706f73616c206d7560008201527f7374206265203c3d20746f74616c20737570706c790000000000000000000000602082015250565b60006200075760358362000650565b91506200076482620006f9565b604082019050919050565b600060208201905081810360008301526200078a8162000748565b9050919050565b6200079c816200036e565b82525050565b6000602082019050620007b9600083018462000791565b92915050565b7f4e487b7100000000000000000000000000000000000000000000000000000000600052602260045260246000fd5b600060028204905060018216806200080757607f821691505b602082108114156200081e576200081d620007bf565b5b50919050565b6129ac80620008346000396000f3fe608060405234801561001057600080fd5b50600436106100f55760003560e01c80639d2eda1711610097578063c9d27afe11610066578063c9d27afe14610262578063dd85d0b91461027e578063f60b5c631461029c578063fe0d94c1146102ba576100f5565b80639d2eda17146101dc578063a4fa7be51461020c578063b6b55f251461022a578063bd8d2e5d14610246576100f5565b80633ccfd60b116100d35780633ccfd60b1461017857806348976936146101825780635dab2420146101a057806362564c48146101be576100f5565b8063150e21d9146100fa578063369f7eef1461012a5780633bf75b5c14610148575b600080fd5b610114600480360381019061010f9190611a1d565b6102d6565b6040516101219190611a63565b60405180910390f35b6101326102ee565b60405161013f9190611a63565b60405180910390f35b610162600480360381019061015d9190611aaa565b6102f4565b60405161016f9190611b61565b60405180910390f35b610180610323565b005b61018a6104a2565b6040516101979190611c15565b60405180910390f35b6101a8610530565b6040516101b59190611c96565b60405180910390f35b6101c6610554565b6040516101d39190611f08565b60405180910390f35b6101f660048036038101906101f19190611a1d565b6107f0565b6040516102039190611a63565b60405180910390f35b610214610808565b6040516102219190611a63565b60405180910390f35b610244600480360381019061023f9190611f2a565b61080e565b005b610260600480360381019061025b9190611fbc565b6108fb565b005b61027c6004803603810190610277919061207c565b610bdd565b005b610286611298565b60405161029391906120ef565b60405180910390f35b6102a46112be565b6040516102b19190611a63565b60405180910390f35b6102d460048036038101906102cf9190611f2a565b6112c4565b005b60066020528060005260406000206000915090505481565b60045481565b60086020528160005260406000206020528060005260406000206000915091509054906101000a900460ff1681565b6000600a60003373ffffffffffffffffffffffffffffffffffffffff1673ffffffffffffffffffffffffffffffffffffffff16815260200190815260200160002054905042600554600960008481526020019081526020016000206002015461038c9190612139565b106103cc576040517f08c379a00000000000000000000000000000000000000000000000000000000081526004016103c390612227565b60405180910390fd5b600160009054906101000a900473ffffffffffffffffffffffffffffffffffffffff1673ffffffffffffffffffffffffffffffffffffffff1663760d9bba3033600660003373ffffffffffffffffffffffffffffffffffffffff1673ffffffffffffffffffffffffffffffffffffffff1681526020019081526020016000205460016040518563ffffffff1660e01b815260040161046d949392919061229c565b600060405180830381600087803b15801561048757600080fd5b505af115801561049b573d6000803e3d6000fd5b5050505050565b600280546104af90612323565b80601f01602080910402602001604051908101604052809291908181526020018280546104db90612323565b80156105285780601f106104fd57610100808354040283529160200191610528565b820191906000526020600020905b81548152906001019060200180831161050b57829003601f168201915b505050505081565b60008054906101000a900473ffffffffffffffffffffffffffffffffffffffff1681565b6060600060016105646007611853565b61056e9190612355565b905060008167ffffffffffffffff81111561058c5761058b612389565b5b6040519080825280602002602001820160405280156105c557816020015b6105b2611877565b8152602001906001900390816105aa5790505b5090506000600190505b8281116107e7576009600082815260200190815260200160002060405180610140016040529081600082015481526020016001820160009054906101000a900473ffffffffffffffffffffffffffffffffffffffff1673ffffffffffffffffffffffffffffffffffffffff1673ffffffffffffffffffffffffffffffffffffffff16815260200160028201548152602001600382015481526020016004820160009054906101000a900473ffffffffffffffffffffffffffffffffffffffff1673ffffffffffffffffffffffffffffffffffffffff1673ffffffffffffffffffffffffffffffffffffffff168152602001600582015481526020016006820180546106d990612323565b80601f016020809104026020016040519081016040528092919081815260200182805461070590612323565b80156107525780601f1061072757610100808354040283529160200191610752565b820191906000526020600020905b81548152906001019060200180831161073557829003601f168201915b5050505050815260200160078201548152602001600882015481526020016009820160009054906101000a900460ff16600281111561079457610793611aea565b5b60028111156107a6576107a5611aea565b5b81525050826001836107b89190612355565b815181106107c9576107c86123b8565b5b602002602001018190525080806107df906123e7565b9150506105cf565b50809250505090565b600a6020528060005260406000206000915090505481565b60055481565b600160009054906101000a900473ffffffffffffffffffffffffffffffffffffffff1673ffffffffffffffffffffffffffffffffffffffff1663760d9bba33308460016040518563ffffffff1660e01b8152600401610870949392919061229c565b600060405180830381600087803b15801561088a57600080fd5b505af115801561089e573d6000803e3d6000fd5b5050505080600660003373ffffffffffffffffffffffffffffffffffffffff1673ffffffffffffffffffffffffffffffffffffffff16815260200190815260200160002060008282546108f19190612139565b9250508190555050565b600354600660003373ffffffffffffffffffffffffffffffffffffffff1673ffffffffffffffffffffffffffffffffffffffff16815260200190815260200160002054101561097f576040517f08c379a00000000000000000000000000000000000000000000000000000000081526004016109769061247c565b60405180910390fd5b600061098b6007611853565b90506040518061014001604052808281526020013373ffffffffffffffffffffffffffffffffffffffff1681526020014281526020018781526020018673ffffffffffffffffffffffffffffffffffffffff16815260200185815260200184848080601f016020809104026020016040519081016040528093929190818152602001838380828437600081840152601f19601f820116905080830192505050505050508152602001600081526020016000815260200160006002811115610a5557610a54611aea565b5b815250600960008381526020019081526020016000206000820151816000015560208201518160010160006101000a81548173ffffffffffffffffffffffffffffffffffffffff021916908373ffffffffffffffffffffffffffffffffffffffff160217905550604082015181600201556060820151816003015560808201518160040160006101000a81548173ffffffffffffffffffffffffffffffffffffffff021916908373ffffffffffffffffffffffffffffffffffffffff16021790555060a0820151816005015560c0820151816006019080519060200190610b3d929190611908565b5060e0820151816007015561010082015181600801556101208201518160090160006101000a81548160ff02191690836002811115610b7f57610b7e611aea565b5b021790555090505080600a60003373ffffffffffffffffffffffffffffffffffffffff1673ffffffffffffffffffffffffffffffffffffffff16815260200190815260200160002081905550610bd56007611861565b505050505050565b6000600660003373ffffffffffffffffffffffffffffffffffffffff1673ffffffffffffffffffffffffffffffffffffffff1681526020019081526020016000205411610c5f576040517f08c379a0000000000000000000000000000000000000000000000000000000008152600401610c56906124e8565b60405180910390fd5b60006002811115610c7357610c72611aea565b5b600860003373ffffffffffffffffffffffffffffffffffffffff1673ffffffffffffffffffffffffffffffffffffffff168152602001908152602001600020600084815260200190815260200160002060009054906101000a900460ff166002811115610ce357610ce2611aea565b5b14610d23576040517f08c379a0000000000000000000000000000000000000000000000000000000008152600401610d1a90612554565b60405180910390fd5b60006009600084815260200190815260200160002060405180610140016040529081600082015481526020016001820160009054906101000a900473ffffffffffffffffffffffffffffffffffffffff1673ffffffffffffffffffffffffffffffffffffffff1673ffffffffffffffffffffffffffffffffffffffff16815260200160028201548152602001600382015481526020016004820160009054906101000a900473ffffffffffffffffffffffffffffffffffffffff1673ffffffffffffffffffffffffffffffffffffffff1673ffffffffffffffffffffffffffffffffffffffff16815260200160058201548152602001600682018054610e2890612323565b80601f0160208091040260200160405190810160405280929190818152602001828054610e5490612323565b8015610ea15780601f10610e7657610100808354040283529160200191610ea1565b820191906000526020600020905b815481529060010190602001808311610e8457829003601f168201915b5050505050815260200160078201548152602001600882015481526020016009820160009054906101000a900460ff166002811115610ee357610ee2611aea565b5b6002811115610ef557610ef4611aea565b5b815250509050426005548260400151610f0e9190612139565b11610f4e576040517f08c379a0000000000000000000000000000000000000000000000000000000008152600401610f45906125c0565b60405180910390fd5b600a60003373ffffffffffffffffffffffffffffffffffffffff1673ffffffffffffffffffffffffffffffffffffffff16815260200190815260200160002054831115610fda5782600a60003373ffffffffffffffffffffffffffffffffffffffff1673ffffffffffffffffffffffffffffffffffffffff168152602001908152602001600020819055505b6000600660003373ffffffffffffffffffffffffffffffffffffffff1673ffffffffffffffffffffffffffffffffffffffff16815260200190815260200160002054905060008260e0015190506000836101000151905084156110cd5782826110439190612139565b9150818460e00181815250506001600860003373ffffffffffffffffffffffffffffffffffffffff1673ffffffffffffffffffffffffffffffffffffffff168152602001908152602001600020600088815260200190815260200160002060006101000a81548160ff021916908360028111156110c3576110c2611aea565b5b0217905550611160565b82816110d99190612139565b905080846101000181815250506002600860003373ffffffffffffffffffffffffffffffffffffffff1673ffffffffffffffffffffffffffffffffffffffff168152602001908152602001600020600088815260200190815260200160002060006101000a81548160ff0219169083600281111561115a57611159611aea565b5b02179055505b83600960008881526020019081526020016000206000820151816000015560208201518160010160006101000a81548173ffffffffffffffffffffffffffffffffffffffff021916908373ffffffffffffffffffffffffffffffffffffffff160217905550604082015181600201556060820151816003015560808201518160040160006101000a81548173ffffffffffffffffffffffffffffffffffffffff021916908373ffffffffffffffffffffffffffffffffffffffff16021790555060a0820151816005015560c0820151816006019080519060200190611246929190611908565b5060e0820151816007015561010082015181600801556101208201518160090160006101000a81548160ff0219169083600281111561128857611287611aea565b5b0217905550905050505050505050565b600160009054906101000a900473ffffffffffffffffffffffffffffffffffffffff1681565b60035481565b60006009600083815260200190815260200160002060405180610140016040529081600082015481526020016001820160009054906101000a900473ffffffffffffffffffffffffffffffffffffffff1673ffffffffffffffffffffffffffffffffffffffff1673ffffffffffffffffffffffffffffffffffffffff16815260200160028201548152602001600382015481526020016004820160009054906101000a900473ffffffffffffffffffffffffffffffffffffffff1673ffffffffffffffffffffffffffffffffffffffff1673ffffffffffffffffffffffffffffffffffffffff168152602001600582015481526020016006820180546113c990612323565b80601f01602080910402602001604051908101604052809291908181526020018280546113f590612323565b80156114425780601f1061141757610100808354040283529160200191611442565b820191906000526020600020905b81548152906001019060200180831161142557829003601f168201915b5050505050815260200160078201548152602001600882015481526020016009820160009054906101000a900460ff16600281111561148457611483611aea565b5b600281111561149657611495611aea565b5b8152505090504260055482604001516114af9190612139565b106114ef576040517f08c379a00000000000000000000000000000000000000000000000000000000081526004016114e69061262c565b60405180910390fd5b60008160e001519050816101000151811161153f576040517f08c379a000000000000000000000000000000000000000000000000000000000815260040161153690612698565b60405180910390fd5b600454811015611584576040517f08c379a000000000000000000000000000000000000000000000000000000000815260040161157b9061272a565b60405180910390fd5b6000600281111561159857611597611aea565b5b82610120015160028111156115b0576115af611aea565b5b146115f0576040517f08c379a00000000000000000000000000000000000000000000000000000000081526004016115e790612796565b60405180910390fd5b60008054906101000a900473ffffffffffffffffffffffffffffffffffffffff1673ffffffffffffffffffffffffffffffffffffffff166344c028fe836060015184608001518560a001518660c001516040518563ffffffff1660e01b815260040161165f94939291906127ef565b600060405180830381600087803b15801561167957600080fd5b505af19250505080156116af57506040513d6000823e3d601f19601f820116820180604052508101906116ac919061292d565b60015b6116ea57600282610120019060028111156116cd576116cc611aea565b5b908160028111156116e1576116e0611aea565b5b8152505061171e565b506001826101200190600281111561170557611704611aea565b5b9081600281111561171957611718611aea565b5b815250505b81600960008581526020019081526020016000206000820151816000015560208201518160010160006101000a81548173ffffffffffffffffffffffffffffffffffffffff021916908373ffffffffffffffffffffffffffffffffffffffff160217905550604082015181600201556060820151816003015560808201518160040160006101000a81548173ffffffffffffffffffffffffffffffffffffffff021916908373ffffffffffffffffffffffffffffffffffffffff16021790555060a0820151816005015560c0820151816006019080519060200190611804929190611908565b5060e0820151816007015561010082015181600801556101208201518160090160006101000a81548160ff0219169083600281111561184657611845611aea565b5b0217905550905050505050565b600081600001549050919050565b6001816000016000828254019250508190555050565b60405180610140016040528060008152602001600073ffffffffffffffffffffffffffffffffffffffff1681526020016000815260200160008152602001600073ffffffffffffffffffffffffffffffffffffffff168152602001600081526020016060815260200160008152602001600081526020016000600281111561190257611901611aea565b5b81525090565b82805461191490612323565b90600052602060002090601f016020900481019282611936576000855561197d565b82601f1061194f57805160ff191683800117855561197d565b8280016001018555821561197d579182015b8281111561197c578251825591602001919060010190611961565b5b50905061198a919061198e565b5090565b5b808211156119a757600081600090555060010161198f565b5090565b6000604051905090565b600080fd5b600080fd5b600073ffffffffffffffffffffffffffffffffffffffff82169050919050565b60006119ea826119bf565b9050919050565b6119fa816119df565b8114611a0557600080fd5b50565b600081359050611a17816119f1565b92915050565b600060208284031215611a3357611a326119b5565b5b6000611a4184828501611a08565b91505092915050565b6000819050919050565b611a5d81611a4a565b82525050565b6000602082019050611a786000830184611a54565b92915050565b611a8781611a4a565b8114611a9257600080fd5b50565b600081359050611aa481611a7e565b92915050565b60008060408385031215611ac157611ac06119b5565b5b6000611acf85828601611a08565b9250506020611ae085828601611a95565b9150509250929050565b7f4e487b7100000000000000000000000000000000000000000000000000000000600052602160045260246000fd5b60038110611b2a57611b29611aea565b5b50565b6000819050611b3b82611b19565b919050565b6000611b4b82611b2d565b9050919050565b611b5b81611b40565b82525050565b6000602082019050611b766000830184611b52565b92915050565b600081519050919050565b600082825260208201905092915050565b60005b83811015611bb6578082015181840152602081019050611b9b565b83811115611bc5576000848401525b50505050565b6000601f19601f8301169050919050565b6000611be782611b7c565b611bf18185611b87565b9350611c01818560208601611b98565b611c0a81611bcb565b840191505092915050565b60006020820190508181036000830152611c2f8184611bdc565b905092915050565b6000819050919050565b6000611c5c611c57611c52846119bf565b611c37565b6119bf565b9050919050565b6000611c6e82611c41565b9050919050565b6000611c8082611c63565b9050919050565b611c9081611c75565b82525050565b6000602082019050611cab6000830184611c87565b92915050565b600081519050919050565b600082825260208201905092915050565b6000819050602082019050919050565b611ce681611a4a565b82525050565b611cf5816119df565b82525050565b600081519050919050565b600082825260208201905092915050565b6000611d2282611cfb565b611d2c8185611d06565b9350611d3c818560208601611b98565b611d4581611bcb565b840191505092915050565b60038110611d6157611d60611aea565b5b50565b6000819050611d7282611d50565b919050565b6000611d8282611d64565b9050919050565b611d9281611d77565b82525050565b600061014083016000830151611db16000860182611cdd565b506020830151611dc46020860182611cec565b506040830151611dd76040860182611cdd565b506060830151611dea6060860182611cdd565b506080830151611dfd6080860182611cec565b5060a0830151611e1060a0860182611cdd565b5060c083015184820360c0860152611e288282611d17565b91505060e0830151611e3d60e0860182611cdd565b50610100830151611e52610100860182611cdd565b50610120830151611e67610120860182611d89565b508091505092915050565b6000611e7e8383611d98565b905092915050565b6000602082019050919050565b6000611e9e82611cb1565b611ea88185611cbc565b935083602082028501611eba85611ccd565b8060005b85811015611ef65784840389528151611ed78582611e72565b9450611ee283611e86565b925060208a01995050600181019050611ebe565b50829750879550505050505092915050565b60006020820190508181036000830152611f228184611e93565b905092915050565b600060208284031215611f4057611f3f6119b5565b5b6000611f4e84828501611a95565b91505092915050565b600080fd5b600080fd5b600080fd5b60008083601f840112611f7c57611f7b611f57565b5b8235905067ffffffffffffffff811115611f9957611f98611f5c565b5b602083019150836001820283011115611fb557611fb4611f61565b5b9250929050565b600080600080600060808688031215611fd857611fd76119b5565b5b6000611fe688828901611a95565b9550506020611ff788828901611a08565b945050604061200888828901611a95565b935050606086013567ffffffffffffffff811115612029576120286119ba565b5b61203588828901611f66565b92509250509295509295909350565b60008115159050919050565b61205981612044565b811461206457600080fd5b50565b60008135905061207681612050565b92915050565b60008060408385031215612093576120926119b5565b5b60006120a185828601611a95565b92505060206120b285828601612067565b9150509250929050565b60006120c782611c41565b9050919050565b60006120d9826120bc565b9050919050565b6120e9816120ce565b82525050565b600060208201905061210460008301846120e0565b92915050565b7f4e487b7100000000000000000000000000000000000000000000000000000000600052601160045260246000fd5b600061214482611a4a565b915061214f83611a4a565b9250827fffffffffffffffffffffffffffffffffffffffffffffffffffffffffffffffff038211156121845761218361210a565b5b828201905092915050565b7f43616e6e6f74207769746864726177206265666f72653a206c61737420766f7460008201527f65642070726f706f73616c20637265617465642061742074696d65202b20707260208201527f6f706f73616c54696d65546f566f7465496e5365636f6e647300000000000000604082015250565b6000612211605983611b87565b915061221c8261218f565b606082019050919050565b6000602082019050818103600083015261224081612204565b9050919050565b612250816119df565b82525050565b61225f81612044565b82525050565b600082825260208201905092915050565b50565b6000612286600083612265565b915061229182612276565b600082019050919050565b600060a0820190506122b16000830187612247565b6122be6020830186612247565b6122cb6040830185611a54565b6122d86060830184612256565b81810360808301526122e981612279565b905095945050505050565b7f4e487b7100000000000000000000000000000000000000000000000000000000600052602260045260246000fd5b6000600282049050600182168061233b57607f821691505b6020821081141561234f5761234e6122f4565b5b50919050565b600061236082611a4a565b915061236b83611a4a565b92508282101561237e5761237d61210a565b5b828203905092915050565b7f4e487b7100000000000000000000000000000000000000000000000000000000600052604160045260246000fd5b7f4e487b7100000000000000000000000000000000000000000000000000000000600052603260045260246000fd5b60006123f282611a4a565b91507fffffffffffffffffffffffffffffffffffffffffffffffffffffffffffffffff8214156124255761242461210a565b5b600182019050919050565b7f4e6f7420656e6f756768206465706f736974656420746f6b656e730000000000600082015250565b6000612466601b83611b87565b915061247182612430565b602082019050919050565b6000602082019050818103600083015261249581612459565b9050919050565b7f41646472657373206d757374206861766520736f6d65206465706f7369740000600082015250565b60006124d2601e83611b87565b91506124dd8261249c565b602082019050919050565b60006020820190508181036000830152612501816124c5565b9050919050565b7f4164647265737320616c726561647920766f7465640000000000000000000000600082015250565b600061253e601583611b87565b915061254982612508565b602082019050919050565b6000602082019050818103600083015261256d81612531565b9050919050565b7f546f6f206c61746520746f20766f746500000000000000000000000000000000600082015250565b60006125aa601083611b87565b91506125b582612574565b602082019050919050565b600060208201905081810360008301526125d98161259d565b9050919050565b7f546f6f206561726c7920746f2065786563757465000000000000000000000000600082015250565b6000612616601483611b87565b9150612621826125e0565b602082019050919050565b6000602082019050818103600083015261264581612609565b9050919050565b7f59657320766f7465206d757374206265203e206e6f20766f7465730000000000600082015250565b6000612682601b83611b87565b915061268d8261264c565b602082019050919050565b600060208201905081810360008301526126b181612675565b9050919050565b7f59657320766f7465206d757374206265203e3d206d696e696d756d20766f746560008201527f7320746f20657865637574650000000000000000000000000000000000000000602082015250565b6000612714602c83611b87565b915061271f826126b8565b604082019050919050565b6000602082019050818103600083015261274381612707565b9050919050565b7f50726f706f73616c20737461747573206d7573742062652050454e44494e4700600082015250565b6000612780601f83611b87565b915061278b8261274a565b602082019050919050565b600060208201905081810360008301526127af81612773565b9050919050565b60006127c182611cfb565b6127cb8185612265565b93506127db818560208601611b98565b6127e481611bcb565b840191505092915050565b60006080820190506128046000830187611a54565b6128116020830186612247565b61281e6040830185611a54565b818103606083015261283081846127b6565b905095945050505050565b600080fd5b61284982611bcb565b810181811067ffffffffffffffff8211171561286857612867612389565b5b80604052505050565b600061287b6119ab565b90506128878282612840565b919050565b600067ffffffffffffffff8211156128a7576128a6612389565b5b6128b082611bcb565b9050602081019050919050565b60006128d06128cb8461288c565b612871565b9050828152602081018484840111156128ec576128eb61283b565b5b6128f7848285611b98565b509392505050565b600082601f83011261291457612913611f57565b5b81516129248482602086016128bd565b91505092915050565b600060208284031215612943576129426119b5565b5b600082015167ffffffffffffffff811115612961576129606119ba565b5b61296d848285016128ff565b9150509291505056fea264697066735822122009052522dbfdff9b4284de86e35c303e46ae52e0718dafc0c392f7119cc8190964736f6c63430008090033608060405260405162003c5f38038062003c5f8339818101604052810190620000299190620001e1565b6200003f816200004660201b6200103a1760201c565b5062000213565b620000566200014e60201b60201c565b73ffffffffffffffffffffffffffffffffffffffff168173ffffffffffffffffffffffffffffffffffffffff16146200014b5760008060009054906101000a900473ffffffffffffffffffffffffffffffffffffffff169050816000806101000a81548173ffffffffffffffffffffffffffffffffffffffff021916908373ffffffffffffffffffffffffffffffffffffffff1602179055508173ffffffffffffffffffffffffffffffffffffffff168173ffffffffffffffffffffffffffffffffffffffff167f8be0079c531659141344cd1fd0a4f28419497f9722a3daafe3b4186f6b6457e060405160405180910390a3505b50565b60008060009054906101000a900473ffffffffffffffffffffffffffffffffffffffff16905090565b600080fd5b600073ffffffffffffffffffffffffffffffffffffffff82169050919050565b6000620001a9826200017c565b9050919050565b620001bb816200019c565b8114620001c757600080fd5b50565b600081519050620001db81620001b0565b92915050565b600060208284031215620001fa57620001f962000177565b5b60006200020a84828501620001ca565b91505092915050565b613a3c80620002236000396000f3fe6080604052600436106100c65760003560e01c806354f6127f1161007f5780637f23690c116100595780637f23690c146102c25780638da5cb5b146102eb578063e30c397814610316578063f2fde38b14610341576100c7565b806354f6127f1461023e5780636bb56a141461027b578063715018a6146102ab576100c7565b806301ffc9a71461011757806314a6e293146101545780631626ba7e1461017d57806344c028fe146101ba5780634e3e6e9c146101ea5780634e71e0c814610227576100c7565b5b600034111561011557343373ffffffffffffffffffffffffffffffffffffffff167f7e71433ddf847725166244795048ecf3e3f9f35628254ecbf73605666423349360405160405180910390a35b005b34801561012357600080fd5b5061013e600480360381019061013991906120ba565b61036a565b60405161014b9190612102565b60405180910390f35b34801561016057600080fd5b5061017b60048036038101906101769190612442565b6104b8565b005b34801561018957600080fd5b506101a4600480360381019061019f91906124ba565b610563565b6040516101b19190612525565b60405180910390f35b6101d460048036038101906101cf919061262f565b6106a1565b6040516101e1919061273f565b60405180910390f35b3480156101f657600080fd5b50610211600480360381019061020c9190612761565b610d6b565b60405161021e91906128b6565b60405180910390f35b34801561023357600080fd5b5061023c610e21565b005b34801561024a57600080fd5b50610265600480360381019061026091906128d8565b610e2b565b604051610272919061273f565b60405180910390f35b61029560048036038101906102909190612905565b610e3d565b6040516102a2919061273f565b60405180910390f35b3480156102b757600080fd5b506102c0610fad565b005b3480156102ce57600080fd5b506102e960048036038101906102e491906124ba565b610fc1565b005b3480156102f757600080fd5b50610300610fd7565b60405161030d9190612974565b60405180910390f35b34801561032257600080fd5b5061032b611000565b6040516103389190612974565b60405180910390f35b34801561034d57600080fd5b506103686004803603810190610363919061298f565b611026565b005b6000631626ba7e60e01b7bffffffffffffffffffffffffffffffffffffffffffffffffffffffff1916827bffffffffffffffffffffffffffffffffffffffffffffffffffffffff191614806104035750639a3bfe8860e01b7bffffffffffffffffffffffffffffffffffffffffffffffffffffffff1916827bffffffffffffffffffffffffffffffffffffffffffffffffffffffff1916145b806104525750636bb56a1460e01b7bffffffffffffffffffffffffffffffffffffffffffffffffffffffff1916827bffffffffffffffffffffffffffffffffffffffffffffffffffffffff1916145b806104a1575063d225f16060e01b7bffffffffffffffffffffffffffffffffffffffffffffffffffffffff1916827bffffffffffffffffffffffffffffffffffffffffffffffffffffffff1916145b806104b157506104b082611139565b5b9050919050565b6104c061119a565b8051825114610504576040517f08c379a00000000000000000000000000000000000000000000000000000000081526004016104fb90612a3f565b60405180910390fd5b60005b825181101561055e5761054e83828151811061052657610525612a5f565b5b602002602001015183838151811061054157610540612a5f565b5b6020026020010151611211565b6105578161126a565b9050610507565b505050565b60008061056e610fd7565b905060008173ffffffffffffffffffffffffffffffffffffffff163b14610645576105a081631626ba7e60e01b611277565b6105b15763ffffffff60e01b61063d565b8073ffffffffffffffffffffffffffffffffffffffff16631626ba7e85856040518363ffffffff1660e01b81526004016105ec929190612a9d565b60206040518083038186803b15801561060457600080fd5b505afa158015610618573d6000803e3d6000fd5b505050506040513d601f19601f8201168201806040525081019061063c9190612ae2565b5b91505061069b565b61064f84846113a2565b73ffffffffffffffffffffffffffffffffffffffff168173ffffffffffffffffffffffffffffffffffffffff161461068e5763ffffffff60e01b610697565b631626ba7e60e01b5b9150505b92915050565b60606106ab61119a565b60005a905060008714156107af57844710156106fc576040517f08c379a00000000000000000000000000000000000000000000000000000000081526004016106f390612b81565b60405180910390fd5b61074c868686868080601f016020809104026020016040519081016040528093929190818152602001838380828437600081840152601f19601f82011690508083019250505050505050846113c9565b9150848673ffffffffffffffffffffffffffffffffffffffff16887f4810874456b8e6487bd861375cf6abd8e1c8bb5858c8ce36a86a04dabfac199e8787906107959190612bb9565b6040516107a29190612525565b60405180910390a4610d61565b60038714156108ad57600085146107fb576040517f08c379a00000000000000000000000000000000000000000000000000000000081526004016107f290612c8a565b60405180910390fd5b61084a8685858080601f016020809104026020016040519081016040528093929190818152602001838380828437600081840152601f19601f8201169050808301925050505050505083611489565b9150848673ffffffffffffffffffffffffffffffffffffffff16887f4810874456b8e6487bd861375cf6abd8e1c8bb5858c8ce36a86a04dabfac199e8787906108939190612bb9565b6040516108a09190612525565b60405180910390a4610d60565b60048714156109ab57600085146108f9576040517f08c379a00000000000000000000000000000000000000000000000000000000081526004016108f090612d1c565b60405180910390fd5b6109488685858080601f016020809104026020016040519081016040528093929190818152602001838380828437600081840152601f19601f8201169050808301925050505050505083611545565b9150848673ffffffffffffffffffffffffffffffffffffffff16887f4810874456b8e6487bd861375cf6abd8e1c8bb5858c8ce36a86a04dabfac199e8787906109919190612bb9565b60405161099e9190612525565b60405180910390a4610d5f565b6001871415610b2557600073ffffffffffffffffffffffffffffffffffffffff168673ffffffffffffffffffffffffffffffffffffffff1614610a23576040517f08c379a0000000000000000000000000000000000000000000000000000000008152600401610a1a90612dd4565b60405180910390fd5b84471015610a66576040517f08c379a0000000000000000000000000000000000000000000000000000000008152600401610a5d90612b81565b60405180910390fd5b6000610ab68686868080601f016020809104026020016040519081016040528093929190818152602001838380828437600081840152601f19601f82011690508083019250505050505050611601565b905080604051602001610ac99190612e3c565b6040516020818303038152906040529250858173ffffffffffffffffffffffffffffffffffffffff16897f01c42bd7e97a66166063b02fce6924e6656b6c2c61966630165095c4fb0b7b2f60405160405180910390a450610d5e565b6002871415610d2257600073ffffffffffffffffffffffffffffffffffffffff168673ffffffffffffffffffffffffffffffffffffffff1614610b9d576040517f08c379a0000000000000000000000000000000000000000000000000000000008152600401610b9490612dd4565b60405180910390fd5b84471015610be0576040517f08c379a0000000000000000000000000000000000000000000000000000000008152600401610bd790612b81565b60405180910390fd5b6000610c3f85858080601f016020809104026020016040519081016040528093929190818152602001838380828437600081840152601f19601f82011690508083019250505050505050602087879050610c3a9190612e86565b6116c7565b90506000610ca286868080601f016020809104026020016040519081016040528093929190818152602001838380828437600081840152601f19601f820116905080830192505050505050506000602089899050610c9d9190612e86565b61172e565b90506000610cb188848461184c565b905080604051602001610cc49190612e3c565b6040516020818303038152906040529450878173ffffffffffffffffffffffffffffffffffffffff168b7f01c42bd7e97a66166063b02fce6924e6656b6c2c61966630165095c4fb0b7b2f60405160405180910390a4505050610d5d565b6040517f08c379a0000000000000000000000000000000000000000000000000000000008152600401610d5490612f06565b60405180910390fd5b5b5b5b5b5095945050505050565b6060815167ffffffffffffffff811115610d8857610d87612133565b5b604051908082528060200260200182016040528015610dbb57816020015b6060815260200190600190039081610da65790505b50905060005b8251811015610e1b57610ded838281518110610de057610ddf612a5f565b5b602002602001015161195d565b828281518110610e0057610dff612a5f565b5b6020026020010181905250610e148161126a565b9050610dc1565b50919050565b610e29611a02565b565b6060610e368261195d565b9050919050565b60606000610e6d7f0cfc51aec37c55a4d0b1a65c6255c4bf2fbdf6277f3cc0730c45b828b6db8b4760001b61195d565b90506014815110610f3c57600081610e8490612f77565b60601c9050610e9a8163a245bbda60e01b611277565b15610f3a578073ffffffffffffffffffffffffffffffffffffffff1663a245bbda33348989896040518663ffffffff1660e01b8152600401610ee095949392919061301a565b600060405180830381600087803b158015610efa57600080fd5b505af1158015610f0e573d6000803e3d6000fd5b505050506040513d6000823e3d601f19601f82011682018060405250810190610f3791906130d8565b92505b505b81604051610f4a919061315d565b6040518091039020853373ffffffffffffffffffffffffffffffffffffffff167f9c3ba68eb5742b8e3961aea0afc7371a71bf433c8a67a831803b64c064a178c2348888604051610f9d93929190613174565b60405180910390a4509392505050565b610fb561119a565b610fbf600061103a565b565b610fc961119a565b610fd38282611211565b5050565b60008060009054906101000a900473ffffffffffffffffffffffffffffffffffffffff16905090565b600260009054906101000a900473ffffffffffffffffffffffffffffffffffffffff1681565b61102e61119a565b61103781611b01565b50565b611042610fd7565b73ffffffffffffffffffffffffffffffffffffffff168173ffffffffffffffffffffffffffffffffffffffff16146111365760008060009054906101000a900473ffffffffffffffffffffffffffffffffffffffff169050816000806101000a81548173ffffffffffffffffffffffffffffffffffffffff021916908373ffffffffffffffffffffffffffffffffffffffff1602179055508173ffffffffffffffffffffffffffffffffffffffff168173ffffffffffffffffffffffffffffffffffffffff167f8be0079c531659141344cd1fd0a4f28419497f9722a3daafe3b4186f6b6457e060405160405180910390a3505b50565b600063714df77c60e01b7bffffffffffffffffffffffffffffffffffffffffffffffffffffffff1916827bffffffffffffffffffffffffffffffffffffffffffffffffffffffff19161480611193575061119282611b45565b5b9050919050565b3373ffffffffffffffffffffffffffffffffffffffff166111b9610fd7565b73ffffffffffffffffffffffffffffffffffffffff161461120f576040517f08c379a0000000000000000000000000000000000000000000000000000000008152600401611206906131f2565b60405180910390fd5b565b80600160008481526020019081526020016000209080519060200190611238929190611fab565b50817fcdf4e344c0d23d4cdd0474039d176c55b19d531070dbe17856bfb993a5b5720b60405160405180910390a25050565b6000600182019050919050565b6000806301ffc9a760e01b836040516024016112939190612525565b604051602081830303815290604052907bffffffffffffffffffffffffffffffffffffffffffffffffffffffff19166020820180517bffffffffffffffffffffffffffffffffffffffffffffffffffffffff838183161783525050505090506000808573ffffffffffffffffffffffffffffffffffffffff166175308460405161131d919061315d565b6000604051808303818686fa925050503d8060008114611359576040519150601f19603f3d011682016040523d82523d6000602084013e61135e565b606091505b5091509150602081511015611379576000935050505061139c565b818015611396575080806020019051810190611395919061323e565b5b93505050505b92915050565b60008060006113b18585611ba6565b915091506113be81611bf8565b819250505092915050565b60606000808673ffffffffffffffffffffffffffffffffffffffff168487876040516113f5919061315d565b600060405180830381858888f193505050503d8060008114611433576040519150601f19603f3d011682016040523d82523d6000602084013e611438565b606091505b509150915061147d82826040518060400160405280601581526020017f455243373235583a20556e6b6e6f77204572726f720000000000000000000000815250611dcd565b92505050949350505050565b60606000808573ffffffffffffffffffffffffffffffffffffffff1684866040516114b4919061315d565b6000604051808303818686fa925050503d80600081146114f0576040519150601f19603f3d011682016040523d82523d6000602084013e6114f5565b606091505b509150915061153a82826040518060400160405280601581526020017f455243373235583a20556e6b6e6f77204572726f720000000000000000000000815250611dcd565b925050509392505050565b60606000808573ffffffffffffffffffffffffffffffffffffffff168486604051611570919061315d565b6000604051808303818686f4925050503d80600081146115ac576040519150601f19603f3d011682016040523d82523d6000602084013e6115b1565b606091505b50915091506115f682826040518060400160405280601581526020017f455243373235583a20556e6b6e6f77204572726f720000000000000000000000815250611dcd565b925050509392505050565b60008082511415611647576040517f08c379a000000000000000000000000000000000000000000000000000000000815260040161163e906132b7565b60405180910390fd5b81516020830184f09050600073ffffffffffffffffffffffffffffffffffffffff168173ffffffffffffffffffffffffffffffffffffffff1614156116c1576040517f08c379a00000000000000000000000000000000000000000000000000000000081526004016116b890613323565b60405180910390fd5b92915050565b60006020826116d69190613343565b83511015611719576040517f08c379a0000000000000000000000000000000000000000000000000000000008152600401611710906133e5565b60405180910390fd5b60008260208501015190508091505092915050565b606081601f8361173e9190613343565b101561177f576040517f08c379a000000000000000000000000000000000000000000000000000000000815260040161177690613451565b60405180910390fd5b818361178b9190613343565b845110156117ce576040517f08c379a00000000000000000000000000000000000000000000000000000000081526004016117c5906134bd565b60405180910390fd5b60608215600081146117ef5760405191506000825260208201604052611840565b6040519150601f8416801560200281840101858101878315602002848b0101015b8183101561182d5780518352602083019250602081019050611810565b50868552601f19601f8301166040525050505b50809150509392505050565b60008084471015611892576040517f08c379a000000000000000000000000000000000000000000000000000000000815260040161188990613529565b60405180910390fd5b6000835114156118d7576040517f08c379a00000000000000000000000000000000000000000000000000000000081526004016118ce90613595565b60405180910390fd5b8383516020850187f59050600073ffffffffffffffffffffffffffffffffffffffff168173ffffffffffffffffffffffffffffffffffffffff161415611952576040517f08c379a000000000000000000000000000000000000000000000000000000000815260040161194990613601565b60405180910390fd5b809150509392505050565b606060016000838152602001908152602001600020805461197d90613650565b80601f01602080910402602001604051908101604052809291908181526020018280546119a990613650565b80156119f65780601f106119cb576101008083540402835291602001916119f6565b820191906000526020600020905b8154815290600101906020018083116119d957829003601f168201915b50505050509050919050565b600260009054906101000a900473ffffffffffffffffffffffffffffffffffffffff1673ffffffffffffffffffffffffffffffffffffffff163373ffffffffffffffffffffffffffffffffffffffff1614611a92576040517f08c379a0000000000000000000000000000000000000000000000000000000008152600401611a89906136f4565b60405180910390fd5b611abd600260009054906101000a900473ffffffffffffffffffffffffffffffffffffffff1661103a565b6000600260006101000a81548173ffffffffffffffffffffffffffffffffffffffff021916908373ffffffffffffffffffffffffffffffffffffffff160217905550565b80600260006101000a81548173ffffffffffffffffffffffffffffffffffffffff021916908373ffffffffffffffffffffffffffffffffffffffff16021790555050565b60006344c028fe60e01b7bffffffffffffffffffffffffffffffffffffffffffffffffffffffff1916827bffffffffffffffffffffffffffffffffffffffffffffffffffffffff19161480611b9f5750611b9e82611e34565b5b9050919050565b600080604183511415611be85760008060006020860151925060408601519150606086015160001a9050611bdc87828585611e9e565b94509450505050611bf1565b60006002915091505b9250929050565b60006004811115611c0c57611c0b613714565b5b816004811115611c1f57611c1e613714565b5b1415611c2a57611dca565b60016004811115611c3e57611c3d613714565b5b816004811115611c5157611c50613714565b5b1415611c92576040517f08c379a0000000000000000000000000000000000000000000000000000000008152600401611c899061378f565b60405180910390fd5b60026004811115611ca657611ca5613714565b5b816004811115611cb957611cb8613714565b5b1415611cfa576040517f08c379a0000000000000000000000000000000000000000000000000000000008152600401611cf1906137fb565b60405180910390fd5b60036004811115611d0e57611d0d613714565b5b816004811115611d2157611d20613714565b5b1415611d62576040517f08c379a0000000000000000000000000000000000000000000000000000000008152600401611d599061388d565b60405180910390fd5b600480811115611d7557611d74613714565b5b816004811115611d8857611d87613714565b5b1415611dc9576040517f08c379a0000000000000000000000000000000000000000000000000000000008152600401611dc09061391f565b60405180910390fd5b5b50565b60608315611ddd57829050611e2d565b600083511115611df05782518084602001fd5b816040517f08c379a0000000000000000000000000000000000000000000000000000000008152600401611e249190613983565b60405180910390fd5b9392505050565b60007f01ffc9a7000000000000000000000000000000000000000000000000000000007bffffffffffffffffffffffffffffffffffffffffffffffffffffffff1916827bffffffffffffffffffffffffffffffffffffffffffffffffffffffff1916149050919050565b6000807f7fffffffffffffffffffffffffffffff5d576e7357a4501ddfe92f46681b20a08360001c1115611ed9576000600391509150611fa2565b601b8560ff1614158015611ef15750601c8560ff1614155b15611f03576000600491509150611fa2565b600060018787878760405160008152602001604052604051611f2894939291906139c1565b6020604051602081039080840390855afa158015611f4a573d6000803e3d6000fd5b505050602060405103519050600073ffffffffffffffffffffffffffffffffffffffff168173ffffffffffffffffffffffffffffffffffffffff161415611f9957600060019250925050611fa2565b80600092509250505b94509492505050565b828054611fb790613650565b90600052602060002090601f016020900481019282611fd95760008555612020565b82601f10611ff257805160ff1916838001178555612020565b82800160010185558215612020579182015b8281111561201f578251825591602001919060010190612004565b5b50905061202d9190612031565b5090565b5b8082111561204a576000816000905550600101612032565b5090565b6000604051905090565b600080fd5b600080fd5b60007fffffffff0000000000000000000000000000000000000000000000000000000082169050919050565b61209781612062565b81146120a257600080fd5b50565b6000813590506120b48161208e565b92915050565b6000602082840312156120d0576120cf612058565b5b60006120de848285016120a5565b91505092915050565b60008115159050919050565b6120fc816120e7565b82525050565b600060208201905061211760008301846120f3565b92915050565b600080fd5b6000601f19601f8301169050919050565b7f4e487b7100000000000000000000000000000000000000000000000000000000600052604160045260246000fd5b61216b82612122565b810181811067ffffffffffffffff8211171561218a57612189612133565b5b80604052505050565b600061219d61204e565b90506121a98282612162565b919050565b600067ffffffffffffffff8211156121c9576121c8612133565b5b602082029050602081019050919050565b600080fd5b6000819050919050565b6121f2816121df565b81146121fd57600080fd5b50565b60008135905061220f816121e9565b92915050565b6000612228612223846121ae565b612193565b9050808382526020820190506020840283018581111561224b5761224a6121da565b5b835b8181101561227457806122608882612200565b84526020840193505060208101905061224d565b5050509392505050565b600082601f8301126122935761229261211d565b5b81356122a3848260208601612215565b91505092915050565b600067ffffffffffffffff8211156122c7576122c6612133565b5b602082029050602081019050919050565b600080fd5b600067ffffffffffffffff8211156122f8576122f7612133565b5b61230182612122565b9050602081019050919050565b82818337600083830152505050565b600061233061232b846122dd565b612193565b90508281526020810184848401111561234c5761234b6122d8565b5b61235784828561230e565b509392505050565b600082601f8301126123745761237361211d565b5b813561238484826020860161231d565b91505092915050565b60006123a061239b846122ac565b612193565b905080838252602082019050602084028301858111156123c3576123c26121da565b5b835b8181101561240a57803567ffffffffffffffff8111156123e8576123e761211d565b5b8086016123f5898261235f565b855260208501945050506020810190506123c5565b5050509392505050565b600082601f8301126124295761242861211d565b5b813561243984826020860161238d565b91505092915050565b6000806040838503121561245957612458612058565b5b600083013567ffffffffffffffff8111156124775761247661205d565b5b6124838582860161227e565b925050602083013567ffffffffffffffff8111156124a4576124a361205d565b5b6124b085828601612414565b9150509250929050565b600080604083850312156124d1576124d0612058565b5b60006124df85828601612200565b925050602083013567ffffffffffffffff811115612500576124ff61205d565b5b61250c8582860161235f565b9150509250929050565b61251f81612062565b82525050565b600060208201905061253a6000830184612516565b92915050565b6000819050919050565b61255381612540565b811461255e57600080fd5b50565b6000813590506125708161254a565b92915050565b600073ffffffffffffffffffffffffffffffffffffffff82169050919050565b60006125a182612576565b9050919050565b6125b181612596565b81146125bc57600080fd5b50565b6000813590506125ce816125a8565b92915050565b600080fd5b60008083601f8401126125ef576125ee61211d565b5b8235905067ffffffffffffffff81111561260c5761260b6125d4565b5b602083019150836001820283011115612628576126276121da565b5b9250929050565b60008060008060006080868803121561264b5761264a612058565b5b600061265988828901612561565b955050602061266a888289016125bf565b945050604061267b88828901612561565b935050606086013567ffffffffffffffff81111561269c5761269b61205d565b5b6126a8888289016125d9565b92509250509295509295909350565b600081519050919050565b600082825260208201905092915050565b60005b838110156126f15780820151818401526020810190506126d6565b83811115612700576000848401525b50505050565b6000612711826126b7565b61271b81856126c2565b935061272b8185602086016126d3565b61273481612122565b840191505092915050565b600060208201905081810360008301526127598184612706565b905092915050565b60006020828403121561277757612776612058565b5b600082013567ffffffffffffffff8111156127955761279461205d565b5b6127a18482850161227e565b91505092915050565b600081519050919050565b600082825260208201905092915050565b6000819050602082019050919050565b600082825260208201905092915050565b60006127f2826126b7565b6127fc81856127d6565b935061280c8185602086016126d3565b61281581612122565b840191505092915050565b600061282c83836127e7565b905092915050565b6000602082019050919050565b600061284c826127aa565b61285681856127b5565b935083602082028501612868856127c6565b8060005b858110156128a457848403895281516128858582612820565b945061289083612834565b925060208a0199505060018101905061286c565b50829750879550505050505092915050565b600060208201905081810360008301526128d08184612841565b905092915050565b6000602082840312156128ee576128ed612058565b5b60006128fc84828501612200565b91505092915050565b60008060006040848603121561291e5761291d612058565b5b600061292c86828701612200565b935050602084013567ffffffffffffffff81111561294d5761294c61205d565b5b612959868287016125d9565b92509250509250925092565b61296e81612596565b82525050565b60006020820190506129896000830184612965565b92915050565b6000602082840312156129a5576129a4612058565b5b60006129b3848285016125bf565b91505092915050565b600082825260208201905092915050565b7f4b657973206c656e677468206e6f7420657175616c20746f2076616c7565732060008201527f6c656e6774680000000000000000000000000000000000000000000000000000602082015250565b6000612a296026836129bc565b9150612a34826129cd565b604082019050919050565b60006020820190508181036000830152612a5881612a1c565b9050919050565b7f4e487b7100000000000000000000000000000000000000000000000000000000600052603260045260246000fd5b612a97816121df565b82525050565b6000604082019050612ab26000830185612a8e565b8181036020830152612ac48184612706565b90509392505050565b600081519050612adc8161208e565b92915050565b600060208284031215612af857612af7612058565b5b6000612b0684828501612acd565b91505092915050565b7f455243373235583a20696e73756666696369656e742062616c616e636520666f60008201527f722063616c6c0000000000000000000000000000000000000000000000000000602082015250565b6000612b6b6026836129bc565b9150612b7682612b0f565b604082019050919050565b60006020820190508181036000830152612b9a81612b5e565b9050919050565b600082905092915050565b600082821b905092915050565b6000612bc58383612ba1565b82612bd08135612062565b92506004821015612c1057612c0b7fffffffff0000000000000000000000000000000000000000000000000000000083600403600802612bac565b831692505b505092915050565b7f455243373235583a2063616e6e6f74207472616e736665722076616c7565207760008201527f697468206f7065726174696f6e2053544154494343414c4c0000000000000000602082015250565b6000612c746038836129bc565b9150612c7f82612c18565b604082019050919050565b60006020820190508181036000830152612ca381612c67565b9050919050565b7f455243373235583a2063616e6e6f74207472616e736665722076616c7565207760008201527f697468206f7065726174696f6e2044454c454741544543414c4c000000000000602082015250565b6000612d06603a836129bc565b9150612d1182612caa565b604082019050919050565b60006020820190508181036000830152612d3581612cf9565b9050919050565b7f455243373235583a20435245415445206f7065726174696f6e7320726571756960008201527f726520746865207265636569766572206164647265737320746f20626520656d60208201527f7074790000000000000000000000000000000000000000000000000000000000604082015250565b6000612dbe6043836129bc565b9150612dc982612d3c565b606082019050919050565b60006020820190508181036000830152612ded81612db1565b9050919050565b60008160601b9050919050565b6000612e0c82612df4565b9050919050565b6000612e1e82612e01565b9050919050565b612e36612e3182612596565b612e13565b82525050565b6000612e488284612e25565b60148201915081905092915050565b7f4e487b7100000000000000000000000000000000000000000000000000000000600052601160045260246000fd5b6000612e9182612540565b9150612e9c83612540565b925082821015612eaf57612eae612e57565b5b828203905092915050565b7f57726f6e67206f7065726174696f6e2074797065000000000000000000000000600082015250565b6000612ef06014836129bc565b9150612efb82612eba565b602082019050919050565b60006020820190508181036000830152612f1f81612ee3565b9050919050565b6000819050602082019050919050565b60007fffffffffffffffffffffffffffffffffffffffff00000000000000000000000082169050919050565b6000612f6e8251612f36565b80915050919050565b6000612f82826126b7565b82612f8c84612f26565b9050612f9781612f62565b92506014821015612fd757612fd27fffffffffffffffffffffffffffffffffffffffff00000000000000000000000083601403600802612bac565b831692505b5050919050565b612fe781612540565b82525050565b6000612ff983856126c2565b935061300683858461230e565b61300f83612122565b840190509392505050565b600060808201905061302f6000830188612965565b61303c6020830187612fde565b6130496040830186612a8e565b818103606083015261305c818486612fed565b90509695505050505050565b600061307b613076846122dd565b612193565b905082815260208101848484011115613097576130966122d8565b5b6130a28482856126d3565b509392505050565b600082601f8301126130bf576130be61211d565b5b81516130cf848260208601613068565b91505092915050565b6000602082840312156130ee576130ed612058565b5b600082015167ffffffffffffffff81111561310c5761310b61205d565b5b613118848285016130aa565b91505092915050565b600081905092915050565b6000613137826126b7565b6131418185613121565b93506131518185602086016126d3565b80840191505092915050565b6000613169828461312c565b915081905092915050565b60006040820190506131896000830186612fde565b818103602083015261319c818486612fed565b9050949350505050565b7f4f776e61626c653a2063616c6c6572206973206e6f7420746865206f776e6572600082015250565b60006131dc6020836129bc565b91506131e7826131a6565b602082019050919050565b6000602082019050818103600083015261320b816131cf565b9050919050565b61321b816120e7565b811461322657600080fd5b50565b60008151905061323881613212565b92915050565b60006020828403121561325457613253612058565b5b600061326284828501613229565b91505092915050565b7f6e6f20636f6e74726163742062797465636f64652070726f7669646564000000600082015250565b60006132a1601d836129bc565b91506132ac8261326b565b602082019050919050565b600060208201905081810360008301526132d081613294565b9050919050565b7f436f756c64206e6f74206465706c6f7920636f6e747261637400000000000000600082015250565b600061330d6019836129bc565b9150613318826132d7565b602082019050919050565b6000602082019050818103600083015261333c81613300565b9050919050565b600061334e82612540565b915061335983612540565b9250827fffffffffffffffffffffffffffffffffffffffffffffffffffffffffffffffff0382111561338e5761338d612e57565b5b828201905092915050565b7f746f427974657333325f6f75744f66426f756e64730000000000000000000000600082015250565b60006133cf6015836129bc565b91506133da82613399565b602082019050919050565b600060208201905081810360008301526133fe816133c2565b9050919050565b7f736c6963655f6f766572666c6f77000000000000000000000000000000000000600082015250565b600061343b600e836129bc565b915061344682613405565b602082019050919050565b6000602082019050818103600083015261346a8161342e565b9050919050565b7f736c6963655f6f75744f66426f756e6473000000000000000000000000000000600082015250565b60006134a76011836129bc565b91506134b282613471565b602082019050919050565b600060208201905081810360008301526134d68161349a565b9050919050565b7f437265617465323a20696e73756666696369656e742062616c616e6365000000600082015250565b6000613513601d836129bc565b915061351e826134dd565b602082019050919050565b6000602082019050818103600083015261354281613506565b9050919050565b7f437265617465323a2062797465636f6465206c656e677468206973207a65726f600082015250565b600061357f6020836129bc565b915061358a82613549565b602082019050919050565b600060208201905081810360008301526135ae81613572565b9050919050565b7f437265617465323a204661696c6564206f6e206465706c6f7900000000000000600082015250565b60006135eb6019836129bc565b91506135f6826135b5565b602082019050919050565b6000602082019050818103600083015261361a816135de565b9050919050565b7f4e487b7100000000000000000000000000000000000000000000000000000000600052602260045260246000fd5b6000600282049050600182168061366857607f821691505b6020821081141561367c5761367b613621565b5b50919050565b7f4f776e61626c65436c61696d3a2063616c6c6572206973206e6f74207468652060008201527f70656e64696e674f776e65720000000000000000000000000000000000000000602082015250565b60006136de602c836129bc565b91506136e982613682565b604082019050919050565b6000602082019050818103600083015261370d816136d1565b9050919050565b7f4e487b7100000000000000000000000000000000000000000000000000000000600052602160045260246000fd5b7f45434453413a20696e76616c6964207369676e61747572650000000000000000600082015250565b60006137796018836129bc565b915061378482613743565b602082019050919050565b600060208201905081810360008301526137a88161376c565b9050919050565b7f45434453413a20696e76616c6964207369676e6174757265206c656e67746800600082015250565b60006137e5601f836129bc565b91506137f0826137af565b602082019050919050565b60006020820190508181036000830152613814816137d8565b9050919050565b7f45434453413a20696e76616c6964207369676e6174757265202773272076616c60008201527f7565000000000000000000000000000000000000000000000000000000000000602082015250565b60006138776022836129bc565b91506138828261381b565b604082019050919050565b600060208201905081810360008301526138a68161386a565b9050919050565b7f45434453413a20696e76616c6964207369676e6174757265202776272076616c60008201527f7565000000000000000000000000000000000000000000000000000000000000602082015250565b60006139096022836129bc565b9150613914826138ad565b604082019050919050565b60006020820190508181036000830152613938816138fc565b9050919050565b600081519050919050565b60006139558261393f565b61395f81856129bc565b935061396f8185602086016126d3565b61397881612122565b840191505092915050565b6000602082019050818103600083015261399d818461394a565b905092915050565b600060ff82169050919050565b6139bb816139a5565b82525050565b60006080820190506139d66000830187612a8e565b6139e360208301866139b2565b6139f06040830185612a8e565b6139fd6060830184612a8e565b9594505050505056fea2646970667358221220154950337b16cc77527b68eb79185c8e82023c38ddf4985eff6ccb7b009cf8d264736f6c63430008090033",
  "linkReferences": {},
  "deployedLinkReferences": {}
}